:1000000080313728080008007E14803120007F08E6
:10001000A0000B1F15282100941C15282000941CFB
:1000200015289231A922803132280B1F2128210066
:10003000141C21282000141C212885313C258031E6
:1000400032280B1F2D282100111C2D282000111CE7
:100050002D2893311F23803132288B190B1C322815
:100060009231DA2220002008FF007E100900803142
:10007000392821008731FD278031E3008731FE27B1
:100080008031E4008731FF278031E5002200923182
:10009000C7228031EA009231C8228031EB009231D0
:1000A000C9228031EC009231CA228031ED00F70183
:1000B000F801F901FA01FB01CA3084000030850023
:1000C00019309231EC2280312030840001308500DB
:1000D00046309231EC228031A0308400013085001E
:1000E00030309231EC227E1020008331452B2100EC
:1000F000B9014130A9002908B9009231AB22803101
:10010000003A031D86288B311A238031B930210033
:10011000A90029082000AF00F4302100AA002A0815
:100120002000B0007630883100208031F33021008B
:10013000A90029082000C30003302100AA002A08D2
:100140002000C400C501C50AB9302100AB002B084E
:100150002000C60076308831BE2080312100AC00FE
:100160002C08B800390803193803031996283808F1
:10017000031DC52800309331072300302100A6005D
:100180005C30A700C230A8000800C0302000B100D9
:100190000130B200F7302100A90029082000B30087
:1001A0000830B4000030B50076308931F921803153
:1001B000003A031DE6280030933107230030210068
:1001C000A6005C30A700C230A80008000030200064
:1001D000A4000030A3000030A2001030A1002300D2
:1001E0004508F0392100A900AA01AB01AC012300A8
:1001F00044082100AD00AE01AF01B0010830AD35BB
:10020000AE0DAF0DB00D890BFF2823004308210070
:10021000B100B201B301B4011030B135B20DB30D6C
:10022000B40D890B0D293108AD073208AE3D3308F6
:10023000AF3D3408B03D2D08A9072E08AA3D2F0870
:10024000AB3D3008AC3D2C082000A80021002B0855
:100250002000A70021002A082000A600210029086C
:100260002000A50087317B27803120002408220050
:10027000A700200023082200A60020002208220058
:10028000A500200021082200A40057082000AA0091
:10029000220056082000A9009631642680312000F3
:1002A0002908D6002A08D7002B08D80021005408B6
:1002B0002000AA00210053082000A9009431032443
:1002C000803120002908B4002A08B5002B08B600A8
:1002D0000030B1008030B2004430B3008D31C7250A
:1002E000803120003108C1003208C2003308C30049
:1002F00093312823803120004108C9004208CA00F8
:100300004308CB000030B1008030B2004630B3006B
:10031000220027082000AC00220026082000AB00A5
:10032000220025082000AA00220024082000A9009D
:1003300088313C20803120002908B4002A08B5000B
:100340002B08B6008D31C725803120003108CC0044
:100350003208CD003308CE0086318526803120005A
:100360004908D9004A08DA004B08DB008E317026B4
:100370008031200056082200B400200057082200D7
:10038000B500200058082200B600210054082000C3
:10039000AA00210053082000A900943103248031D1
:1003A00020002908B4002A08B5002B08B600003048
:1003B000B1000030B2004630B3008D31C725803126
:1003C00020003108C1003208C2003308C300933155
:1003D0002823803120004108C9004208CA00430890
:1003E000CB000030B1000030B2004830B300220032
:1003F00027082000AC00220026082000AB002200C5
:1004000025082000AA00220024082000A900883125
:100410003C20803120002908B4002A08B5002B08B0
:10042000B6008D31C725803120003108CC0032085C
:10043000CD003308CE008631852680312000490862
:10044000D6004A08D7004B08D800210054082000E5
:10045000AA00210053082000A90094310324803110
:1004600020002908B4002A08B5002B08B600003087
:10047000B1000030B2004630B3008D31C725803165
:1004800020003108C1003208C2003308C300933194
:100490002823803120004108C9004208CA004308CF
:1004A000CB000030B1000030B2004830B300220071
:1004B00027082000AC00220026082000AB00220004
:1004C00025082000AA00220024082000A900883165
:1004D0003C20803120002908B4002A08B5002B08F0
:1004E000B6008D31C725803120003108CC0032089C
:1004F000CD003308CE0086318526803120004908A2
:10050000D9004A08DA004B08DB008E3170268031B2
:10051000200056082100B500200057082100B60031
:10052000200058082100B700220055082000AA002A
:10053000220054082000A900963164268031200052
:100540002908D6002A08D7002B08D8002100350832
:100550002000D900210036082000DA0021003708E9
:100560002000DB008E3170268031200056082200EA
:10057000B100200057082200B200200058082200D5
:10058000B30034082000CC00220035082000CD0044
:10059000220036082000CE00220031082000C900C9
:1005A000220032082000CA00220033082000CB00BD
:1005B00086318526803120004908E6004A08E70098
:1005C0004B08E8008C318324803120006908AC009E
:1005D0006808AB006708AA006608A90088313C20BB
:1005E0008031200029082200AE0020002A082200C5
:1005F000AF0020002B082200B00000302000B10026
:10060000A030B2004530B300220031082000C900FC
:10061000220032082000CA00220033082000CB004C
:10062000220034082000CC00220035082000CD0034
:10063000220036082000CE00863185268031200039
:100640004908B4004A08B5004B08B6008D31C725EB
:100650008031200031082200AB0020003208220047
:10066000AC00200033082200AD0001309331072395
:1006700022002B082100A60022002C082100A70040
:1006800022002D082100A80008002300DB01D00172
:100690000030D4000030D3000030D2000030D10050
:1006A0000030DA000030D9000030D8000030D70028
:1006B000D501D6019531062583318B170B17240000
:1006C0008E160B302100C9002630C8005D30890B22
:1006D000672BC80B672BC90B672B00329231CB22DB
:1006E00083318C31082483318B311A2383310A30D2
:1006F0002000A1000030A2009231D5228331803148
:100700000320833122000E1706302100C900133068
:10071000C800AD30890B8A2BC80B8A2BC90B8A2BDA
:10072000003222000E1396310526833101308D31BF
:100730002225833100302000A4000030A3000330C4
:10074000A200E830A10023005A082000A8002300DE
:1007500059082000A700230058082000A600230005
:1007600057082000A500893151218331200021083C
:100770002100C8004808BA00803177208331210069
:100780002608BB002708BC002808BD0023005B0822
:100790008F31242783319431862483318A31572243
:1007A000833120008E1A2B2C22000E1706302100D8
:1007B000C9001330C800AD30890BDC2BC80BDC2B13
:1007C000C90BDC2B003222000E1396310526833133
:1007D000230057092100C800230058092100C9003F
:1007E000C80A0319C90A9331BB2383312100480881
:1007F000200021072300D500210049082000223DC8
:100800002300D600E8302000A1000330A20023001E
:1008100056082000A400230055082000A3009731AB
:10082000CB278331200021082100C8004808BA00E6
:1008300080317720833121002608BB002708BC00C7
:100840002808BD0023005B088F31242783319431B1
:1008500086248331332C9231AE2283312100C800AB
:1008600048082300DB0023005B0850060319A42C72
:1008700002305B060319A42C963105268331230030
:100880005B03031D462C2100BA01752C570921007A
:10089000C800230058092100C900C80A0319C90A61
:1008A0009331BB2383312100480820002107230016
:1008B000D500210049082000223D2300D600E83061
:1008C0002000A1000330A200230056082000A4004D
:1008D000230055082000A3009731CB278331200047
:1008E00021082100C8004808BA00803177208331F0
:1008F00021002608BB002708BC002808BD002300F3
:100900005B088F31242783319331BB23833120004F
:1009100024082300DA00200023082300D900200047
:1009200022082300D800200021082300D70094319A
:100930008624833100302300D4000030D3000030FF
:10094000D2000030D1002C2D5B03031DE12C570990
:100950002100C800230058092100C900C80A031952
:10096000C90A9331BB2383312100480820002107A5
:100970002300D500210049082000223D2300D60095
:10098000EA305602603003195502031C2C2D9631B3
:1009900005268331E8302000A1000330A2002300A7
:1009A00056082000A400230055082000A30097311A
:1009B000CB278331200021082100C8004808BA0055
:1009C000FE2C22006D0823005402031DF72C220088
:1009D0006C0823005302031DF72C22006B08230030
:1009E0005202031DF72C22006A0823005102031C47
:1009F000192D9631052683312100BA0180317720E7
:100A0000833121002608BB002708BC002808BD0050
:100A100023005B088F31242783319431862483316E
:100A200000302300D4000030D3000030D20000306A
:100A3000D1009331BB238331200024082300DA0046
:100A4000200023082300D900200022082300D8001A
:100A5000200021082300D7005B082100C8004808B7
:100A60002300D0001030D1072730D23D0030D33DD5
:100A70000030D43D6300CE2B2000141024009D1FB5
:100A80007A2E9D13F9017708023E86000130870017
:100A9000403FF300413FF40073088600740887006C
:100AA00001308100F70108002100CC1808004B0834
:100AB000F3007308F7004B08860001308700010837
:100AC000F3007308E2004B08860001308700013014
:100AD000413FF8000430F3007308CB074B08663A37
:100AE000031D762D6230F3007308CB004C104B08C9
:100AF0004A060319CC1424001E140230F3007308B4
:100B0000F900080024009E140230F3007308F90075
:100B1000080024001E1F952D0130F30073082100EA
:100B2000CE0704309531572508007B08F4007A0879
:100B3000F300F436F30C7308240099007A1CA52DF9
:100B40000B30F3007308F90008000330F30073085A
:100B5000F900080024001E1FB62D0130F3007308B1
:100B60002100CE0704309531572508009E147B08DC
:100B7000F4007A08F3007408F300F40106307305FA
:100B8000F50000307405F600F0307504FA0000300E
:100B90007604FB007A142100E001E00A0230F30041
:100BA0007308F9000800210060030319EF2D78088D
:100BB000860001308700403FFA00413FFB00780883
:100BC000033E860001308700403FD500413FD600FC
:100BD00078088600013087000130423FE1007A0842
:100BE000240099007A1CF92D0530F3007308F900F0
:100BF00008000330F3007308F900080024001E1FEA
:100C00000C2E0130F30073082100CE0724001E13C0
:100C1000053095315725080001302100E102610AB5
:100C2000031D252E0530F3007308F8070130E2029A
:100C3000031D1E2E003095315725080024009E14F8
:100C40000230F3007308F9000800210055088600FF
:100C50005608870001082400990001302100D507BB
:100C60000030D63D080024001E1F412E0130F30045
:100C700073082100CE0704309531572524001E1338
:100C800008009E150830F3007308F90008000830CA
:100C9000F3007308F90024009E1508002100550890
:100CA00086005608870024001908810001302100C1
:100CB000D5070030D63D0130E1020319662E24002D
:100CC0009E120630F3007308F9006A2E24009E1667
:100CD0009331AA2324001E160800003095315725B1
:100CE00008000130F30073082100CE07063095316B
:100CF00057250800790884000C3004020318712E6F
:100D000090310435003E8200080020004908CF00E1
:100D10004A08D0004B08D1000310500D510DD200ED
:100D20005208D5004C08CF004D08D0004E08D10025
:100D30000310500D510DD2005208D400550803196C
:100D4000AD2E540855020318B42E5503FF3A54072C
:100D5000CF0019304F02031CB42E4C08C9004D08B7
:100D6000CA004E08CB0008005408031908005508B3
:100D700054020318C32E5403FF3A5507CF0019300D
:100D80004F02031808000630CF004F08D300CB1BDA
:100D9000D317CE1B5317CA17FF30C905FF30CA053A
:100DA0000030CB05CD17FF30CC05FF30CD0500302E
:100DB000CE05540855020318FF2E0130CC35CD0D59
:100DC000CE0D890BDE2E0130D402540855060319CE
:100DD000FA2E0130D302530807390319FA2EDD2EFB
:100DE0000130CB36CA0CC90C890BF12E0130CF0073
:100DF0004F08D507550854060319242FF02E55081F
:100E000054020318242F0130C935CA0DCB0D890BAC
:100E1000042F0130D502540855060319202F013044
:100E2000D302530807390319202F032F0130CE3680
:100E3000CD0CCC0C890B172F0130CF004F08D407F5
:100E400055085406031D162FD31F362FFF30C90631
:100E5000FF30CA06FF30CB060130C9070030031847
:100E60000130CA07003003180130CB07531F482F49
:100E7000FF30CC06FF30CD06FF30CE060130CC0768
:100E8000003003180130CD07003003180130CE07C1
:100E9000D3014908CC074A08CD3D4B08CE3DCE1FB3
:100EA000632FFF30CC06FF30CD06FF30CE06013079
:100EB000CC07003003180130CD0700300318013093
:100EC000CE07D301D30A4C08A1004D08A2004E085A
:100ED000A3005508CF004F08A4005308D0005008C5
:100EE000A5008A31B52220002108C9002208CA00C5
:100EF0002308CB0008002000AB01A41F8C2FA10900
:100F0000A209A309A409A10A0319A20A0319A30AA1
:100F10000319A40AAB01AB0AA81F9D2FA509A609B6
:100F2000A709A809A50A0319A60A0319A70A0319FC
:100F3000A80A0130A9002908AB060030AF00003034
:100F4000AE000030AD000030AC00240823042204C1
:100F500021040319E62FAA01AA0AA41BBB2F013002
:100F6000A135A20DA30DA40D890BB02F0130A9004E
:100F70002908AA07AD2F0130AC35AD0DAE0DAF0D70
:100F8000890BBC2F24082802031DD02F2308270219
:100F9000031DD02F22082602031DD02F2108250271
:100FA000031CDB2F2108A5022208A63B2308A73B30
:100FB0002408A83B2C140130A436A30CA20CA10CCD
:100FC000890BDC2F0130AA02031DBB2F2B0803194C
:100FD000F42FAC09AD09AE09AF09AC0A0319AD0A8B
:100FE0000319AE0A0319AF0A2F08A4002E08A300A4
:100FF0002D08A2002C08A10008000134013405349A
:101000002000B500B8013008B1003108B6002F0843
:10101000860087010108B1003108B7000230B10035
:101020003108A8003508B200B3013208A90033081E
:10103000AA003830B4003408AB00363097311A2794
:101040008831C8302000A1000030A20094319E24D5
:101050008831023020003806031D342889310421EC
:101060008831003A0319292820003808031D3A283E
:1010700001300800003008002000B0018E30AD00C3
:101080002D08AF00AC1F5128A909AA09AB09AC096A
:10109000A90A0319AA0A0319AB0A0319AC0AB00179
:1010A000B00AFF302C05031961280130AC36AB0CB7
:1010B000AA0CA90C890B56280130AD002D08AF07EA
:1010C00051282908A1002A08A2002B08A3002F08F4
:1010D000AD002D08A4003008AE002E08A5008A310E
:1010E000B52220002108A9002208AA002308AB008D
:1010F00008009231D02288319231E6228831003ABC
:1011000003197C281F3093318A2388319231B12210
:101110008831933100238831003A031989289231AC
:10112000CB22883193314323883120002208C80024
:101130002108C7004808AA004708A90094310324E1
:10114000883120002908B1002A08B2002B08B3001A
:101150001230B4008330B5004430B6008D31C7255D
:1011600020003108C4003208C5003308C600440816
:10117000C1004508C2004608C30008002000CA009C
:101180004C30BC000030BD004308C7004708BE001B
:101190000130BF000030C0004A089331CC238831B1
:1011A000003A0319022901302000C700450AD92856
:1011B000C735890BD8284708FF3EC8004503FF3ACA
:1011C0004407013E890AE528C835890BE428480808
:1011D000C9004908CB004B08C7004708CC054503A8
:1011E000FF3A4407013E890AF7280310CC0CFF3E62
:1011F000031DF5284C08C7004608860087014708EC
:10120000810008000030080021004F082000A100E4
:10121000210050082000A200210051082000A30056
:10122000210052082000A400220020092000A5006F
:10123000220021092000A600220022092000A70088
:10124000220023092000A800A50A0319A60A0319F1
:10125000A70A0319A80A2508A1072608A23D2708FE
:10126000A33D2808A43D22003C082000A90022003C
:101270003D082000AA00AB01AC0124082C02031D8C
:101280004B2923082B02031D4B2922082A02031D88
:101290004B292108290203184F290130080000308A
:1012A000080000302000AD000030AC000030AB0082
:1012B0000030AA00240823042204210403199B29D6
:1012C000AE01AE0AA41B70290130A135A20DA30DF9
:1012D000A40D890B65290130A9002908AE076229F0
:1012E0000130AA35AB0DAC0DAD0D890B7129240869
:1012F0002802031D852923082702031D85292208AA
:101300002602031D852921082502031C9029210896
:10131000A5022208A63B2308A73B2408A83B2A14C1
:101320000130A436A30CA20CA10C890B9129013029
:10133000AE02031D70292D08A4002C08A3002B0861
:10134000A2002A08A10008002000A40021004C18D7
:10135000E62902302000A300220886008701230826
:1013600081002108A30021004A0A8600013087007D
:101370002000230881002408A30021004A088600D9
:101380000130870020002308810021004A08023E26
:1013900086000130870020002208C03F0030C13F96
:1013A0000430A30023082100CA074A08663A031D37
:1013B000DF2962302000A30023082100CA00CC10DE
:1013C0004B084A06031DEC294C14EC292000220886
:1013D000860087018101810A20002208860087019A
:1013E00002300106031D08001414790803190800CF
:1013F000F4292000BA00BB01A801A80A3A08B600E7
:10140000B7013608A9003708AA003B30B8003808F1
:10141000AB00333097311A278931C8302000A10042
:101420000030A20094319E248931023020003B0616
:10143000031D202A893104218931003A0319152A14
:1014400020003B080319262A003008003208AA00B1
:101450003108A9003408B6003608AB003A08B700D6
:10146000B8013708AC003808AD003B30B900390886
:10147000AE009631F2268931C8302000A10000303C
:10148000A20094319E248931023020003B06031DC6
:101490004F2A893104218931003A0319442A200056
:1014A0003B08031D552A01300800003008000030B9
:1014B0002000B4000030B3000030B2000A30B100A8
:1014C000953174258A3120002108B1002208B2002C
:1014D000B301B4010030AD00A030AE00FF30AF006A
:1014E000FF30B0003108AD073208AE3D3308AF3DE4
:1014F0003408B03D3008B4002F08B3002E08B20005
:101500002D08B1003408A4003308A3003208A2005B
:101510003108A1000030A8000030A7000330A60069
:10152000E830A50097319B278A3120002108AD00C3
:101530002208AE002308AF002408B0000C30B036FB
:10154000AF0CAE0CAD0C890B9F2A2D082100CF07E4
:1015500020002E082100D03D20002F082100D13D81
:10156000200030082100D23D080020002408031983
:10157000BE2A230822042104031DCF2A0030A10023
:101580000030A2000030A30008000130A6002608A9
:10159000A4070130A336A20CA10C890BCA2AFE3085
:1015A00023050319E82AC52A0130A6002608A40746
:1015B0000130A107003003180130A20700300318E2
:1015C0000130A3070130A336A20CA10C890BE32A3A
:1015D000FF3023050319F52AD42A0130A402013073
:1015E000A135A20DA30D890BF02AA21BFB2A023004
:1015F00024020318ED2A2418032BFF30A1057F30A5
:10160000A205FF30A3050310A40C2408A600A7011F
:10161000A8011030A635A70DA80D890B0A2B2608A6
:10162000A1042708A2042808A30425080319080018
:10163000A317080040302000BC003C08BF003F302A
:10164000BC003C08AF00F430BD003D08B00076306F
:10165000883100208B31003A031D322B003093314A
:1016600007230800E0302000BC003C08BF00A83081
:10167000B1000130B2008830BC003C08B300183023
:10168000B4000030B50076308931F9218B31003A51
:10169000031D4E2B00309331072308002300290837
:1016A0002000BC00BD013C08BD00BC01230028088F
:1016B00020003C072100D30020003D0803183D0A0C
:1016C0002100D40023002B082000BC00BD013C08F1
:1016D000BD00BC0123002A0820003C072200D600E0
:1016E00020003D0803183D0A2200D70023002D08E2
:1016F0002000BC00BD013C08BD00BC0123002C083B
:1017000020003C072200D40020003D0803183D0AB9
:101710002200D50001309331072308003B3095317A
:10172000AE258B31003A0319002C04302000B300A1
:101730003308AF0037309331F0238B312000371C52
:10174000AA2B3808B3003308A70021005E089431A3
:1017500043248B312000B71CB72B21005D082000EB
:10176000B3003308A7003908943143248B3120009B
:10177000371DFA2B3A08B300B401B501B60136089B
:101780002200ED00200035082200EC002000340883
:101790002200EB00200033082200EA000030200085
:1017A000A4000030A3000330A200E830A100220012
:1017B0006D082000A80022006C082000A70022006D
:1017C0006B082000A60022006A082000A5009731BF
:1017D0009B278B31200024082200ED0020002308E5
:1017E0002200EC00200022082200EB00200021084B
:1017F0002200EA002000B71D002C9231B4228B3168
:101800003B309531AE258B31003A031908008E2B01
:1018100002302000AF000430AE00BA30890B0E2C2D
:10182000AE0B0E2CAF0B0E2C00009231BF228C3170
:1018300026302000AE002E08A300063094312D245F
:101840008C3106302000AE002E08A30011309431F8
:101850002D248C3102302000AE002E08A30005306C
:1018600094312D248C3121302000A9009830AA0019
:101870000530AE002E08AB000A30953191258C3131
:1018800021302000A9009830AA000530AE002E08B3
:10189000AB001030953191258C312000A301A30AB3
:1018A000023094312D248C317030963124268C31C5
:1018B0002000A301A30A013094312D248C31F13092
:1018C0002000AE002E08A300043094312D248C316A
:1018D0000E302000AE002E08A300003094312D24DD
:1018E0008C3106302000AE002E08A3001D3094314C
:1018F0002D248C312000A301A30A1C3094312D2407
:1019000022000E11080020006608EA006708EB00BC
:101910006808EC0003106B0D6C0DED006D082100E4
:10192000A5002508031D9E2C00302000E900003092
:10193000E8000030E7000030E600080020006608FC
:10194000EA006708EB006808EC001730EC36EB0C97
:10195000EA0C890BA62C6A08ED006D082100A00096
:101960002000E717FF30E605FF30E7050030E80507
:1019700066082100A100200067082100A2002000C5
:1019800068082100A300A4018E30A502A51FE82C41
:101990002508803A8F3E0318D72C00302000E9003C
:1019A0000030E8000030E7000030E60008000130B9
:1019B0002100A436A30CA20CA10C890BD82C013059
:1019C0002000EA006A082100A5070319042DD72C7E
:1019D00018302502031C002D00302000E9000030E3
:1019E000E8000030E7000030E60008000130210088
:1019F000A135A20DA30DA40D890BF72C0130A50272
:101A000021002508031DF62C20080319122DA10919
:101A1000A209A309A409A10A0319A20A0319A30A86
:101A20000319A40A24082000E9002100230820004B
:101A3000E800210022082000E70021002108200002
:101A4000E60008002000B800FF30B5003508B900F6
:101A500038080319662D2100DC0104305C020318EC
:101A60004C2D5C089531E8258D312000B101B10A7B
:101A70003930943118248D3120008E193C2D93314A
:101A80006F238D31003A031D4C2D01302000B5002D
:101A900035082100DC072D2D21005C082000B50051
:101AA000B6013508A1003608A2000030A300A4004A
:101AB0000330A5000030A6009631CC268D312000E1
:101AC0002108B70037082100DC00BF2D93316F23B8
:101AD0008D312000B5003508BA00053021005B02C9
:101AE000031C9D2D5C080319842D20003A0803195E
:101AF000842D043021005A02031C842D0130DC02A5
:101B00005C089531E8258D312100DB01DA012000E8
:101B10003A08031D9B2D033021005C0203189B2D06
:101B200001302000B50035082100DC075C08953144
:101B3000E825013008000030080020003A080319A9
:101B4000AD2D0130B50035082100DB070130200044
:101B5000B50035082100DA07BF2D033021005C02F3
:101B60000318BD2D01302000B50035082100DC0729
:101B70005C089531E825013008000030080020009D
:101B80003A08031DC52D0130080000300800200070
:101B90003408B7003508B8003608B9000310380D0E
:101BA000390DBA003A08BF003F08031DDE2D003092
:101BB000B1000030B2000030B30008003108B700B7
:101BC0003208B8003308B9000310380D390DBA00D7
:101BD0003A08C0004008031DF42D0030B100003069
:101BE000B2000030B30008000030BC000030BD007F
:101BF0000030BE0089304007B7003708BF02340804
:101C0000B7003508B8003608B9001030B936B80C3E
:101C1000B70C890B062E3708BA003A08C000310805
:101C2000B7003208B8003308B9001030B936B80C24
:101C3000B70C890B162E3708BA003A08C006803058
:101C4000B7003708C005B517FF30B405FF30B5053C
:101C50000030B605B217FF30B105FF30B2050030D5
:101C6000B3051830B7003708BB000130BC35BD0DD7
:101C7000BE0D890B362E33083602031D452E320861
:101C80003502031D452E31083402031C4E2E310847
:101C9000B4023208B53B3308B63B3C140130B435CE
:101CA000B50DB60D890B4F2E0130BB02031D352E2D
:101CB0003C08A1003D08A2003E08A3003F08B70071
:101CC0003708A4004008B8003808A5008A31B522BA
:101CD00020002108B1002208B2002308B300080048
:101CE00020005608DC005708DD005808DE0003100D
:101CF0005D0D5E0DDF005F08E0006008031D872EAC
:101D00000030D6000030D7000030D8000800590855
:101D1000DC005A08DD005B08DE0003105D0D5E0D7F
:101D2000DF005F08E5006508031D9D2E0030D6002A
:101D30000030D7000030D800080065087B3EDC008A
:101D40005C08E0075608DC005708DD005808DE0094
:101D50001030DE36DD0CDC0C890BA92E5C08DF00B0
:101D60005F08E5005908DC005A08DD005B08DE006A
:101D70001030DE36DD0CDC0C890BB92E5C08DF0080
:101D80005F08E5068030DC005C08E505D717DA1748
:101D9000FF30D905FF30DA050030DB050030E10007
:101DA0000030E2000030E3000730DC005C08E400B3
:101DB000561CE02E5908E1075A08E23D5B08E33D56
:101DC0000130D836D70CD60C890BE12E0130D9352D
:101DD000DA0DDB0D890BE72E0130E402031DD82E4E
:101DE0000930DC005C08E400561CFC2E5908E107B1
:101DF0005A08E23D5B08E33D0130D836D70CD60CDB
:101E0000890BFD2E0130E336E20CE10C890B032F28
:101E10000130E402031DF42E6108A1006208A20053
:101E20006308A3006008DC005C08A4006508DD000E
:101E30005D08A5008A31B52220002108D6002208BD
:101E4000D7002308D80008002100C500003020007A
:101E5000C9004830CA004230CB0021003B082000B6
:101E6000CC0021003C082000CD0021003D082000CE
:101E7000CE00863185268F31200049082100BB0025
:101E800020004A082100BC0020004B082100BD00B2
:101E900000302000D6002030D7004130D80021008B
:101EA0003B082000D90021003C082000DA00210076
:101EB0003D082000DB008E3170268F31200056084F
:101EC0002100BB00200057082100BC00200058085A
:101ED0002100BD003B082000E60021003C08200056
:101EE000E70021003D082000E8008C3183248F3179
:101EF000200067082100C700200066082100C600F6
:101F0000C50EF030C5059331DE238F312000EE0081
:101F10006E082100C40044082000EE006E08210075
:101F2000C50445082000EE006E082100BE003A08F6
:101F30002000EE006E082100BF0047082000EE00E0
:101F40006E082100C00046082000EE006E08210047
:101F5000C100883179208F3120004108CC0042082F
:101F6000CD004308CE000030C9008030CA00BF3029
:101F7000CB00863185268F3120004908D9004A08D8
:101F8000DA004B08DB000030D600C830D700423002
:101F9000D8008E3170268F3120005608E600570891
:101FA000E7005808E8008C3183248F31200067084F
:101FB0002100C700200066082100C6004608200056
:101FC000EE006E082100C2005C082000EE006E08E2
:101FD0002100C30006302000EE006E08B100BE30C4
:101FE000943118248F3120008E19F32F00308D3159
:101FF00022258F31003A031DEA2F8B318E230800F2
:102000008531542D8531822D8531D32D8531FE2D9D
:1020100086316D2E8631332E8631472E86316D2ED8
:1020200086314E2E8631712E8531892D8531AA2D2E
:10255200080008002100630808002100590808004B
:1025620021009D1408002100D8010800013022003A
:10257200970008001A3021009700080022000E116F
:102582008E140800FF30943159240800C0342734D7
:102592000934003421001D10220097130800210085
:1025A2001D142200971708000030FC006030FD0067
:1025B20008002700131D0800933162230800200041
:1025C200A20022089331562308002200170E890C1C
:1025D200890C01390800640080010131890BED2A60
:1025E20000347230210099009801220096010800FF
:1025F200403024009400203095009201080003101E
:1026020021009D1C03140030093D08002000A20097
:102612002208A10021082100E30008000130210066
:102622009D0090309E009B019C01080044302000D8
:102632009B009A01911046309C0008002000111066
:102642007D0897007C08960093317C2308002000C7
:10265200430842044104031908008030C3060800FD
:10266200200022082200E900200021082200E800C0
:102672000800200022082200E70020002108220092
:10268200E600080021001C082000A20021001B080F
:102692002000A100080010302100CF072730D03DD4
:1026A2000030D13D0030D23D08002000A1002400BE
:1026B20095132000210824009100141C5E2B1108A0
:1026C200080022006808690403196C2B69088A0053
:1026D20068080A0093312700131108009231C322BF
:1026E20093312000A5002508A600A61E7A2B0130F2
:1026F20008000030080093314C2393312200660811
:1027020067040319080067088A0066080A00933103
:1027120008002000A2002208A100A10DA10D2100A5
:102722001D08200021068339210621009D001D1469
:1027320008002000A30022008E10200023089231FE
:10274200E022933122008E140630890BA62B003230
:1027520008000530F0007008F80701302100E2029D
:10276200031DB82B0430F0007008F9000800F901CD
:10277200F90A0800210052082000A4002100510893
:102782002000A300210050082000A20021004F08D1
:102792002000A10008002000C2003D08B2003C0851
:1027A200B1003E08C1004108B3004008B5003F082F
:1027B200B40042088931F92108002000A201210059
:1027C20064082000A1002108A2040310A20D210028
:1027D20063082000A1002108A204220808002000AA
:1027E200B20022000E1120003208B0003008AA0008
:1027F2002F08B1003108AB0061309531CB252200A2
:102802000E15080020002908A1002A08A200A30131
:102812008E30AC002C08A400A5018A31B52220001C
:102822002108A9002208AA002308AB000800200002
:10283200B40070309631242694319231C3229431FF
:102842002000B2003208B3003108B2003208AE00F4
:10285200340895313C2508002000A40022008E1087
:102862002000240820389231E022943120002308ED
:102872009231E022943122008E140630890B3F2CD3
:10288200003208002000A9002908A8002808210019
:10289200DE0020002708A80028082100DD00200013
:1028A2002708A8002808A40029089431B7240800A2
:1028B2002000A40022008E10200024089231E02281
:1028C20094312000A3002308A40022008E140630B5
:1028D200890B692C0032200024080800200099018D
:1028E2006030970096011708FD001608FC001110D1
:1028F2002100111402302000A1000030A200933107
:102902003A23BD3020009800080030302000AF008C
:102912002F08AA00AB01AB0A00309531CB259431C8
:10292200FD302000AF002F08B0053008AF002F089F
:10293200A300003094312D24080020002208220038
:10294200BD00200021082200BC0021005208220004
:10295200A300210051082200A200210050082200F9
:10296200A10021004F082200A00008002000A600BC
:102972002608A5002508A10001309631A926943128
:1029820020002408A5002508A10002309631A926BE
:1029920094312000A101A10A00309631A926080035
:1029A2002000A40022008E10200024089231E02290
:1029B200943100309231E02294312000A3002308A8
:1029C200A50022008E140630890BE52C003220006F
:1029D2002508080062302000A10021082100CB0058
:1029E20062302000A10021082100CA00CC144C1042
:1029F200CE0124009C0128309D009F0103309A00E3
:102A02002000141021001414080097314427953136
:102A12009231F22295319231BB2295319231F922D3
:102A220095319431EB2495319231B722953193311E
:102A32000F23953193311723953194316F24080078
:102A42002000A80125082802031808002408A7006E
:102A52002308A60028082607840027080318270A47
:102A6200850000089231E022953101302000A60055
:102A72002608A807232D2000B000E13093319A23C5
:102A8200953120003008A9000030AA002E08AF00BE
:102A92002F08AB00A03095319125953122000E15FB
:102AA2000A30890B522D22000E110800F200240078
:102AB2001E157708023E86000130870016000104C9
:102AC2000319722D7708023E860001308700403FCD
:102AD200F000413FF100700886007108870072081B
:102AE2008100F901080020001608A3002308AB00AA
:102AF2001708A3002308AA002B08A300A4012A0890
:102B0200A500A6012508A600A50123082504A80002
:102B120024082604A9002908A2002808A100080008
:102B22002000AD0022008E1020002D0820389231A6
:102B3200E022953120002A08A4002908A3002B08CE
:102B4200AC002C08A50095312125953122008E1468
:102B52000630890BAA2D003208002000A70007309A
:102B62009431D12495312000A6002608A8000E3009
:102B7200A6002608A8050E302806031DC22D003027
:102B820008002836A600270886008701260881004B
:102B9200013008002000AE0022008E1020002E0816
:102BA2009231E022953120002A08AC002C08A300C3
:102BB2002B08AD002D08A4002A0896314426953131
:102BC20022008E140630890BE42D0032080020000A
:102BD200B0003130AF002F08AA00AB01AB0A0630BB
:102BE2009531CB259531F9302000AF002F08B10582
:102BF2003035AF002F08B1043108AF002F08A30011
:102C0200063094312D24080030302000AF002F0808
:102C1200AA00AB01AB0A00309531CB2596312000DA
:102C2200B0143008AF002F08A300003094312D24D7
:102C3200963106302000AF003030890B1E2EAF0BCC
:102C42001E2E000008002000A6000630890B272E49
:102C5200003222008E100630890B2D2E0032200009
:102C62002608A5002508A300073094312D249631AB
:102C72000630890B3A2E003222008E140630890B60
:102C8200402E003208002000A800A90124082902D1
:102C92000318080029082807A500250886008701CF
:102CA20001089231E02296312000A600290823076C
:102CB200A700270886008701260881000130A500A9
:102CC2002508A907472E2000AE01AA1F6F2EA909C9
:102CD200AA09A90A0319AA0AAE01AE0A2908A10083
:102CE2002A08A200A3018E30AC002C08A4002E08F2
:102CF200AD002D08A5008A31B52220002108A900C7
:102D02002208AA002308AB0008002000A70024081C
:102D1200A6002308A500A535A60D270886000130C8
:102D220087002508C03F2608C13F2208A5002708C2
:102D3200023E860001308700250881002708033EF5
:102D42008600013087002108C03F0030C13F0800E3
:102D52002000A200A30122082300910020002108E4
:102D62002300930095131513151500308B1B0130AA
:102D72002000A3008B13553023009600AA30960042
:102D820095149518C22E15112000230C031C8B13C9
:102D920003188B17080020002208803AA700240895
:102DA200803A2702031DD72E230821020318DF2EA3
:102DB20020002408A2002308A10008002000260801
:102DC200803AA7002208803A2702031DEA2E210832
:102DD20025020318080020002608A2002508A100E9
:102DE200080021004C18132F20002A08A2002908ED
:102DF200A1002B08AF002F08A3002D08A5002C0866
:102E0200A400583097316F27963158302000AF0018
:102E12002F08A1002E08B0003008A200013089312D
:102E2200A421080020002E08860087018101810A62
:102E320008002000AE0021004C183D2F20002E0873
:102E4200AC002C08A1002808AD002D08A2002A0819
:102E5200A4002908A3005D309631862697315D30A3
:102E62002000AC002C08A1002B08AD002D08A20008
:102E720001308931A421080020002B088600870137
:102E82008101810A080022008C018D018E013F30F0
:102E920021008C00B0308D0039308E0001302300CB
:102EA2008E008D0103308C00103024008D003F30E5
:102EB2008C00D1308E00210095132A3022009E0012
:102EC2009D012700131112151115AA302000A1002F
:102ED2001230A200933131238B1508002000A80084
:102EE2002508A7002408A600A635A70D28088600F5
:102EF200013087002608C03F2708C13F2808860006
:102F020001308700013081044131003081042308FF
:102F1200A6002808023E86000130870026088100AC
:102F22002808033E8600013087002108C03F22089E
:102F3200C13F080000302000AC000030AB00003080
:102F4200AA000030A900211CAE2F2508A9072608D7
:102F5200AA3D2708AB3D2808AC3D0130A535A60D9A
:102F6200A70DA80D890BAF2F0130A436A30CA20C1C
:102F7200A10C890BB62F2408230422042104031D6B
:102F8200A42F2C08A4002B08A3002A08A2002908B9
:102F9200A10008002000A701A801210822040319AA
:102FA200FB2FA601A60AA21BE02F0130A135A20D1C
:102FB200890BD72F0130A5002508A607D42F013091
:102FC200A735A80D890BE12F22082402031DEB2F40
:102FD20021082302031CF22F2108A3022208A43B8A
:102FE20027140130A236A10C890BF32F0130A6025F
:102FF200031DE02F2808A2002708A10008003C3486
:10300200043442349F346A344234903401344234BA
:103012004D34BB344034EC3447343E348E341F34A8
:10302200BB343C34043442345A348B344234043496
:10303200443442349C344F344134003480343F347D
:0A304200323430343034303431348D
:020000040001F9
:04000E00F4FFFFFEFE
:00000001FF
