:1000000080313728080005347E14803120007F08B5
:10001000A0000B1F15282100941C15282000941CFB
:1000200015289231D322803132280B1F212821003C
:10003000141C21282000141C2128853134258031EE
:1000400032280B1F2D282100111C2D282000111CE7
:100050002D2893314823803132288B190B1C3228EC
:100060009231FD2220002008FF007E10090080311F
:1000700039282100803103208031E60015308400CA
:100080009330850022001200E6001200E700120003
:10009000E8001200E9001200EA001200EB00F7018C
:1000A000F801F901FA01FB01CD3084000030850030
:1000B000193093310F2380312030840001308500C6
:1000C000463093310F238031A03084000130850009
:1000D000303093310F237E10200083313D2B2100DF
:1000E000B9014130A9002908B9009231D5228031E7
:1000F000003A031D7E288B3107238031B93021005F
:10010000A90029082000AF00F4302100AA002A0825
:100110002000B00076309731C4278031F3302100C1
:10012000A90029082000C30003302100AA002A08E2
:100130002000C400C501C50AB9302100AB002B085E
:100140002000C60076308831AB2080312100AC0021
:100150002C08B80039080319380303198E28380809
:10016000031DBD2800309331302300302100A6004C
:100170005C30A700C230A8000800C0302000B100E9
:100180000130B200F7302100A90029082000B30097
:100190000830B4000030B50076308931E621803176
:1001A000003A031DDE280030933130230030210057
:1001B000A6005C30A700C230A80008000030200074
:1001C000A4000030A3000030A2001030A1002300E2
:1001D0004508F0392100A900AA01AB01AC012300B8
:1001E00044082100AD00AE01AF01B0010830AD35CB
:1001F000AE0DAF0DB00D890BF72823004308210089
:10020000B100B201B301B4011030B135B20DB30D7C
:10021000B40D890B05293108AD073208AE3D33080E
:10022000AF3D3408B03D2D08A9072E08AA3D2F0880
:10023000AB3D3008AC3D2C082000A80021002B0865
:100240002000A70021002A082000A600210029087C
:100250002000A50087317E2780312000240822005D
:10026000A700200023082200A60020002208220068
:10027000A500200021082200A40057082000AA00A1
:10028000220056082000A900963140268031200027
:100290002908D6002A08D7002B08D80021005708C3
:1002A0002000AA00210056082000A90094312C2427
:1002B000803120002908B4002A08B5002B08B600B8
:1002C0000030B1008030B2004430B3008D31AD2534
:1002D000803120003108C1003208C2003308C30059
:1002E00093315123803120004108C9004208CA00DF
:1002F0004308CB000030B1008030B2004630B3007C
:10030000220027082000AC00220026082000AB00B5
:10031000220025082000AA00220024082000A900AD
:1003200088312920803120002908B4002A08B5002E
:100330002B08B6008D31AD25803120003108CC006E
:100340003208CD003308CE008F310A2780312000DB
:100350004908D9004A08DA004B08DB008E315626DE
:100360008031200056082200B400200057082200E7
:10037000B500200058082200B600210057082000D0
:10038000AA00210056082000A90094312C248031B5
:1003900020002908B4002A08B5002B08B600003058
:1003A000B1000030B2004630B3008D31AD25803150
:1003B00020003108C1003208C2003308C300933165
:1003C0005123803120004108C9004208CA00430877
:1003D000CB000030B1000030B2004830B300220042
:1003E00027082000AC00220026082000AB002200D5
:1003F00025082000AA00220024082000A900883136
:100400002920803120002908B4002A08B5002B08D3
:10041000B6008D31AD25803120003108CC00320886
:10042000CD003308CE008F310A27803120004908E3
:10043000D6004A08D7004B08D800210057082000F2
:10044000AA00210056082000A90094312C248031F4
:1004500020002908B4002A08B5002B08B600003097
:10046000B1000030B2004630B3008D31AD2580318F
:1004700020003108C1003208C2003308C3009331A4
:100480005123803120004108C9004208CA004308B6
:10049000CB000030B1000030B2004830B300220081
:1004A00027082000AC00220026082000AB00220014
:1004B00025082000AA00220024082000A900883175
:1004C0002920803120002908B4002A08B5002B0813
:1004D000B6008D31AD25803120003108CC003208C6
:1004E000CD003308CE008F310A2780312000490823
:1004F000D9004A08DA004B08DB008E3156268031DD
:10050000200056082100B500200057082100B60041
:10051000200058082100B700220055082000AA003A
:10052000220054082000A900963140268031200086
:100530002908D6002A08D7002B08D8002100350842
:100540002000D900210036082000DA0021003708F9
:100550002000DB008E315626803120005608220014
:10056000B100200057082200B200200058082200E5
:10057000B30034082000CC00220035082000CD0054
:10058000220036082000CE00220031082000C900D9
:10059000220032082000CA00220033082000CB00CD
:1005A0008F310A27803120004908E6004A08E70019
:1005B0004B08E8008C316B24803120006908AC00C6
:1005C0006808AB006708AA006608A90088312920DE
:1005D0008031200029082200AE0020002A082200D5
:1005E000AF0020002B082200B00000302000B10036
:1005F000A030B2004530B300220031082000C9000D
:10060000220032082000CA00220033082000CB005C
:10061000220034082000CC00220035082000CD0044
:10062000220036082000CE008F310A2780312000BA
:100630004908B4004A08B5004B08B6008D31AD2515
:100640008031200031082200AB0020003208220057
:10065000AC00200033082200AD000130933130237C
:1006600022002B082100A60022002C082100A70050
:1006700022002D082100A80008002300DB01D00182
:100680000030D4000030D3000030D2000030D10060
:100690000030DA000030D9000030D8000030D70038
:1006A000D501D6019431FF2483318B170B17240019
:1006B0008E160B302100CC002630CB005D30890B2C
:1006C0005F2BCB0B5F2BCC0B5F2B00329231EE22DA
:1006D00083318B31F02383318B31072383310A300F
:1006E0002000A1000030A2009231F8228331803135
:1006F0000220833122000E1706302100CC00133077
:10070000CB00AD30890B822BCB0B822BCC0B822BF9
:10071000003222000E139531E125833101308D31F5
:100720000A25833100302000A4000030A3000330EC
:10073000A200E830A10023005A082000A8002300EE
:1007400059082000A700230058082000A600230015
:1007500057082000A50089313E218331200021085F
:100760002100CB004B08BA0080316F20833121007B
:100770002608BB002708BC002808BD0023005B0832
:1007800086317D2683319431992483318A31442204
:10079000833120008E1A232C22000E1706302100F0
:1007A000CC001330CB00AD30890BD42BCB0BD42B2A
:1007B000CC0BD42B003222000E139531E12583316E
:1007C000230057092100CB00230058092100CC0049
:1007D000CB0A0319CC0A9331E423833121004B085F
:1007E000200021072300D50021004C082000223DD5
:1007F0002300D600E8302000A1000330A20023002F
:1008000056082000A400230055082000A3009731BB
:100810008F278331200021082100CB004B08BA002C
:1008200080316F20833121002608BB002708BC00DF
:100830002808BD0023005B0886317D268331943172
:10084000992483312B2C9231D82283312100CB0083
:100850004B082300DB0023005B08500603199C2C87
:1008600002305B0603199C2C9531E125833123006E
:100870005B03031D3E2C2100BA016D2C570921009A
:10088000CB00230058092100CC00CB0A0319CC0A65
:100890009331E423833121004B08200021072300FA
:1008A000D50021004C082000223D2300D600E8306E
:1008B0002000A1000330A200230056082000A4005D
:1008C000230055082000A30097318F278331200093
:1008D00021082100CB004B08BA0080316F20833102
:1008E00021002608BB002708BC002808BD00230003
:1008F0005B0886317D2683319331E42383312000E8
:1009000024082300DA00200023082300D900200057
:1009100022082300D800200021082300D7009431AA
:100920009924833100302300D4000030D3000030FC
:10093000D2000030D100242D5B03031DD92C5709B0
:100940002100CB00230058092100CC00CB0A031959
:10095000CC0A9331E423833121004B082000210786
:100960002300D50021004C082000223D2300D600A2
:10097000EA305602603003195502031C242D9531CC
:10098000E1258331E8302000A1000330A2002300DC
:1009900056082000A400230055082000A30097312A
:1009A0008F278331200021082100CB004B08BA009B
:1009B000F62C2200690823005402031DEF2C2200AC
:1009C000680823005302031DEF2C22006708230050
:1009D0005202031DEF2C2200660823005102031C63
:1009E000112D9531E12583312100BA0180316F202D
:1009F000833121002608BB002708BC002808BD0061
:100A000023005B0886317D2683319431992483311C
:100A100000302300D4000030D3000030D20000307A
:100A2000D1009331E4238331200024082300DA002D
:100A3000200023082300D900200022082300D8002A
:100A4000200021082300D7005B082100CB004B08C1
:100A50002300D0001030D1072730D23D0030D33DE5
:100A60000030D43D6300C62B2000141024009D1FCD
:100A7000722E9D13F9017708023E8600013087002F
:100A8000403FF300413FF40073088600740887007C
:100A900001308100F70108002100CF1808004E083E
:100AA000F3007308F7004E08860001308700010844
:100AB000F3007308E5004E0886000130870001301E
:100AC000413FF8000430F3007308CE074E08663A41
:100AD000031D6E2D6230F3007308CE004F104E08D8
:100AE0004D060319CF1424001E140230F3007308BE
:100AF000F900080024009E140230F3007308F90086
:100B0000080024001E1F8D2D0130F3007308210002
:100B1000D10704309531502508007B08F4007A088D
:100B2000F300F436F30C7308240099007A1C9D2D11
:100B30000B30F3007308F90008000330F30073086A
:100B4000F900080024001E1FAE2D0130F3007308C9
:100B50002100D10704309531502508009E147B08F0
:100B6000F4007A08F3007408F300F401063073050A
:100B7000F50000307405F600F0307504FA0000301E
:100B80007604FB007A142100E301E30A0230F3004B
:100B90007308F9000800210063030319E72D7808A2
:100BA000860001308700403FFA00413FFB00780893
:100BB000033E860001308700403FD800413FD90006
:100BC00078088600013087000130423FE4007A084F
:100BD000240099007A1CF12D0530F3007308F90008
:100BE00008000330F3007308F900080024001E1FFA
:100BF000042E0130F30073082100D10724001E13D6
:100C0000053095315025080001302100E402640AC6
:100C1000031D1D2E0530F3007308F8070130E502AF
:100C2000031D162E003095315025080024009E1417
:100C30000230F3007308F90008002100580886000C
:100C40005908870001082400990001302100D807C5
:100C50000030D93D080024001E1F392E0130F3005A
:100C600073082100D10704309531502524001E134C
:100C700008009E150830F3007308F90008000830DA
:100C8000F3007308F90024009E150800210058089D
:100C900086005908870024001908810001302100CE
:100CA000D8070030D93D0130E40203195E2E24003C
:100CB0009E120630F3007308F900622E24009E167F
:100CC0009331D32324001E1608000030953150259F
:100CD00008000130F30073082100D1070630953178
:100CE00050250800790884000C3004020318692E8E
:100CF00090310435003E820008002100C800003019
:100D00002000C9004830CA004230CB0021003B0817
:100D10002000CC0021003C082000CD0021003D082F
:100D20002000CE008F310A2786312000490821009B
:100D3000BB0020004A082100BC0020004B08210015
:100D4000BD0000302000D6002030D7004130D80050
:100D500021003B082000D90021003C082000DA00D7
:100D600021003D082000DB008E3156268631200010
:100D700056082100BB00200057082100BC002000BD
:100D800058082100BD003B082000E60021003C0877
:100D90002000E70021003D082000E8008C316B2492
:100DA0008631200067082100CA0020006608210063
:100DB000C900C80EF030C8059431072486312100DF
:100DC000BE003E08C7004708BE003E08C8046108D0
:100DD000BE000130BE35FF3E031DEA2E3E35BF008A
:100DE0003F08C8044808BE003E08C0003A08BE00DC
:100DF0003E08C1004A08BE003E08C2004908BE00C5
:100E00003E08C30088316620863120004108CC00AE
:100E10004208CD004308CE000030C9008030CA002F
:100E2000BF30CB008F310A27863120004908D90016
:100E30004A08DA004B08DB000030D600C830D70083
:100E40004230D8008E315626863120005608E60002
:100E50005708E7005808E8008C316B2486312000E1
:100E600067082100CA00200066082100C90049085F
:100E7000BE003E08C40000302000A4000030A300E3
:100E80000330A200E830A100220069082000A80079
:100E9000220068082000A700220067082000A600A2
:100EA000220066082000A50087317E2786312000B9
:100EB00022082100CA00200021082100C9004A0898
:100EC000BE003E08C5004908BE003E08C600073007
:100ED0002100BE003E082000B100C0309431412402
:100EE000863120008E19712F00308D310A25863110
:100EF000003A031D672F8B317B2308002000AB01D4
:100F0000A41F8F2FA109A209A309A409A10A0319EB
:100F1000A20A0319A30A0319A40AAB01AB0AA81F6A
:100F2000A02FA509A609A709A809A50A0319A60AB9
:100F30000319A70A0319A80A0130A9002908AB065A
:100F40000030AF000030AE000030AD000030AC002B
:100F500024082304220421040319E92FAA01AA0A60
:100F6000A41BBE2F0130A135A20DA30DA40D890B2A
:100F7000B32F0130A9002908AA07B02F0130AC35E2
:100F8000AD0DAE0DAF0D890BBF2F24082802031D38
:100F9000D32F23082702031DD32F22082602031D67
:100FA000D32F21082502031CDE2F2108A5022208C9
:100FB000A63B2308A73B2408A83B2C140130A436E9
:100FC000A30CA20CA10C890BDF2F0130AA02031D78
:100FD000BE2F2B080319F72FAC09AD09AE09AF09D5
:100FE000AC0A0319AD0A0319AE0A0319AF0A2F0898
:100FF000A4002E08A3002D08A2002C08A1000800C0
:10100000080021004F18222820002A08A2002908E1
:10101000A1002B08AF002F08A3002D08A5002C0865
:10102000A400583097310027883158302000AF0095
:101030002F08A1002E08B0003008A200013089312D
:101040009121080020002E08860087018101810A75
:1010500008002000B0018E30AD002D08AF00AC1F9D
:101060003E28A909AA09AB09AC09A90A0319AA0AC9
:101070000319AB0A0319AC0AB001B00AFF302C0502
:1010800003194E280130AC36AB0CAA0CA90C890B05
:1010900043280130AD002D08AF073E282908A100E4
:1010A0002A08A2002B08A3002F08AD002D08A400D9
:1010B0003008AE002E08A5008A31A22220002108A7
:1010C000A9002208AA002308AB0008009231F322ED
:1010D0008831933109238831003A031969281F3078
:1010E0009331B32388319231DB2288319331292324
:1010F0008831003A031976289231EE2288319331F3
:101100006C23883120002208C8002108C700480845
:10111000AA004708A90094312C248831200029080E
:10112000B1002A08B2002B08B3001230B40083309B
:10113000B5004430B6008D31AD2520003108C40023
:101140003208C5003308C6004408C1004508C20083
:101150004608C30008002000CA004C30BC00003024
:10116000BD004308C7004708BE000130BF00003083
:10117000C0004A089331F5238831003A0319EF285B
:1011800001302000C700450AC628C735890BC5288D
:101190004708FF3EC8004503FF3A4407013E890A5D
:1011A000D228C835890BD1284808C9004908CB0086
:1011B0004B08C7004708CC054503FF3A4407013EEA
:1011C000890AE4280310CC0CFF3E031DE2284C08DA
:1011D000C7004608860087014708810008000030E4
:1011E0000800210052082000A1002100530820001F
:1011F000A200210054082000A3002100550820006F
:10120000A400220020092000A500220021092000BE
:10121000A600220022092000A700220023092000A6
:10122000A800A50A0319A60A0319A70A0319A80A00
:101230002508A1072608A23D2708A33D2808A43DAC
:1012400022003C082000A90022003D082000AA003E
:10125000AB01AC0124082C02031D382923082B0202
:10126000031D382922082A02031D382921082902D2
:1012700003183C290130080000300800003020002D
:10128000AD000030AC000030AB000030AA002408F4
:1012900023042204210403198829AE01AE0AA41BE9
:1012A0005D290130A135A20DA30DA40D890B522992
:1012B0000130A9002908AE074F290130AA35AB0D2E
:1012C000AC0DAD0D890B5E2924082802031D72297F
:1012D00023082702031D722922082602031D7229F2
:1012E00021082502031C7D292108A5022208A63B0E
:1012F0002308A73B2408A83B2A140130A436A30CDA
:10130000A20CA10C890B7E290130AE02031D5D29C0
:101310002D08A4002C08A3002B08A2002A08A10075
:1013200008002000A40021004F18D329023020001B
:10133000A300220886008701230881002108A3005A
:1013400021004D0A8600013087002000230881001B
:101350002408A30021004D088600013087002000EA
:101360002308810021004D08023E860001308700DD
:1013700020002208C03F0030C13F0430A3002308F2
:101380002100CD074D08663A031DCC2962302000AC
:10139000A30023082100CD00CF104E084D06031DE9
:1013A000D9294F14D92920002208860087018101FC
:1013B000810A200022088600870102300106031DF1
:1013C00008001414790803190800E1292000BA0064
:1013D000BB01A801A80A3A08B600B7013608A9005F
:1013E0003708AA003B30B8003808AB0033309631DC
:1013F000AB268931C8302000A1000030A200943112
:10140000B1248931023020003B06031D0D2A8831AA
:10141000F1208931003A0319022A20003B08031900
:10142000132A003008003208AA003108A900340845
:10143000B6003608AB003A08B700B8013708AC0070
:101440003808AD003B30B9003908AE0088310120C2
:101450008931C8302000A1000030A2009431B124AD
:101460008931023020003B06031D3C2A8831F120DF
:101470008931003A0319312A20003B08031D422A12
:10148000013008000030080000302000B4000030B7
:10149000B3000030B2000A30B10095316D258A31B9
:1014A00020002108B1002208B200B301B4010030CD
:1014B000AD00A030AE00FF30AF00FF30B00031080B
:1014C000AD073208AE3D3308AF3D3408B03D3008BB
:1014D000B4002F08B3002E08B2002D08B100340864
:1014E000A4003308A3003208A2003108A100003094
:1014F000A8000030A7000330A600E830A50097310F
:101500002C278A3120002108AD002208AE002308D4
:10151000AF002408B0000C30B036AF0CAE0CAD0CF0
:10152000890B8C2A2D082100D20720002E082100CB
:10153000D33D20002F082100D43D20003008210099
:10154000D53D0800200024080319AB2A23082204F3
:101550002104031DBC2A0030A1000030A20000308D
:10156000A30008000130A6002608A4070130A33616
:10157000A20CA10C890BB72AFE3023050319D52A2A
:10158000B22A0130A6002608A4070130A1070030C6
:1015900003180130A207003003180130A3070130FF
:1015A000A336A20CA10C890BD02AFF302305031906
:1015B000E22AC12A0130A4020130A135A20DA30DF7
:1015C000890BDD2AA21BE82A023024020318DA2A3A
:1015D0002418F02AFF30A1057F30A205FF30A305B3
:1015E0000310A40C2408A600A701A8011030A635FA
:1015F000A70DA80D890BF72A2608A1042708A20425
:101600002808A304250803190800A3170800403080
:101610002000BC003C08BF003F30BC003C08AF00CD
:10162000F430BD003D08B00076309731C4278B31CF
:10163000003A031D1F2B0030933130230800E030A7
:101640002000BC003C08BF00A830B1000130B2004F
:101650008830BC003C08B3001830B4000030B5003E
:1016600076308931E6218B31003A031D3B2B003067
:10167000933130230800230029082000BC00BD015D
:101680003C08BD00BC012300280820003C072100C5
:10169000D60020003D0803183D0A2100D700230092
:1016A0002B082000BC00BD013C08BD00BC0123008C
:1016B0002A0820003C072200D60020003D0803181D
:1016C0003D0A2200D70023002D082000BC00BD01E8
:1016D0003C08BD00BC0123002C0820003C07220070
:1016E000D40020003D0803183D0A2200D500013037
:1016F00093313023080039309531A7258B31003ADA
:101700000319E82B02302000B3003308AF00373054
:10171000943119248B3120003708B300B401B5018E
:10172000B60136082200E900200035082200E80052
:10173000200034082200E700200033082200E600E1
:101740000830E635E70DE80DE90D890BA12B2000E7
:101750003808B300B401B501B60133082200E6042D
:10176000200034082200E704200035082200E804A5
:10177000200036082200E90400302000A4000030D8
:10178000A3000330A200E830A10022006908200075
:10179000A800220068082000A70022006708200097
:1017A000A600220066082000A50097312C278B3167
:1017B000200024082200E900200023082200E8007D
:1017C000200022082200E700200021082200E60075
:1017D00039309531A7258B31003A031908007B2B4E
:1017E00002302000AF000430AE00BA30890BF62B77
:1017F000AE0BF62BAF0BF62B00009231E6228B31AD
:1018000026302000AE002E08A30006309431562466
:101810008B3107302000AE002E08A3001130943128
:1018200056248B3102302000AE002E08A300053074
:10183000943156248B3121302000A9009830AA0021
:101840000530AE002E08AB000A3095318A258B3169
:1018500021302000A9009830AA000530AE002E08E3
:10186000AB00103095318A258B312000A301A30AEB
:101870000230943156248B317030963100268B31F2
:101880002000A301A30A0130943156248B31F1309A
:101890002000AE002E08A3000430943156248B3172
:1018A0000E302000AE002E08A300003094315624E4
:1018B0008B3106302000AE002E08A3001D3094317D
:1018C00056248B312000A301A30A1C3094315624E6
:1018D00022000E11080020006608EA006708EB00ED
:1018E0006808EC0003106B0D6C0DED006D08210015
:1018F000A5002508031D862C00302000E9000030DB
:10190000E8000030E7000030E6000800200066082C
:10191000EA006708EB006808EC001730EC36EB0CC7
:10192000EA0C890B8E2C6A08ED006D082100A000DE
:101930002000E717FF30E605FF30E7050030E80537
:1019400066082100A100200067082100A2002000F5
:1019500068082100A300A4018E30A502A51FD02C89
:101960002508803A8F3E0318BF2C00302000E90084
:101970000030E8000030E7000030E60008000130E9
:101980002100A436A30CA20CA10C890BC02C0130A1
:101990002000EA006A082100A5070319EC2CBF2CDF
:1019A00018302502031CE82C00302000E90000302C
:1019B000E8000030E7000030E600080001302100B8
:1019C000A135A20DA30DA40D890BDF2C0130A502BA
:1019D00021002508031DDE2C20080319FA2CA1097B
:1019E000A209A309A409A10A0319A20A0319A30AB7
:1019F0000319A40A24082000E9002100230820007C
:101A0000E800210022082000E70021002108200032
:101A1000E60008002000B800FF30B5003508B90026
:101A2000380803194E2D2100E1010430610203182A
:101A3000342D610897315C278D312000B101B10A46
:101A40003930943141248D3120008E19242D933169
:101A500098238D31003A031D342D01302000B5004C
:101A600035082100E107152D210061082000B5008F
:101A7000B6013508A1003608A2000030A300A4007A
:101A80000330A5000030A600963185268D31200058
:101A90002108B70037082100E100A52D93319823D4
:101AA0008D312000B5003508BA000130B500350889
:101AB0002100E00720003A08B50035082100DF07C3
:101AC00005306002031C8F2D61080319762D20005C
:101AD0003A080319762D043021005F02031C762D8D
:101AE0000130E102610897315C278D312100E0016E
:101AF000DF0120003A08031D8D2D03302100610213
:101B000003188D2D01302000B50035082100E107B4
:101B1000610897315C270130080000300800200080
:101B20003A08031DA32D0330210061020318A32DE1
:101B300001302000B50035082100E1076108973128
:101B40005C27013008000030080020003A08031D1F
:101B5000AB2D013008000030080020003408B70029
:101B60003508B8003608B9000310380D390DBA0031
:101B70003A08BF003F08031DC42D0030B1000030FB
:101B8000B2000030B30008003108B7003208B800D6
:101B90003308B9000310380D390DBA003A08C000F7
:101BA0004008031DDA2D0030B1000030B2000030D3
:101BB000B30008000030BC000030BD000030BE00A3
:101BC00089304007B7003708BF023408B70035082E
:101BD000B8003608B9001030B936B80CB70C890B0C
:101BE000EC2D3708BA003A08C0003108B7003208B7
:101BF000B8003308B9001030B936B80CB70C890BEF
:101C0000FC2D3708BA003A08C0068030B700370804
:101C1000C005B517FF30B405FF30B5050030B60577
:101C2000B217FF30B105FF30B2050030B3051830F0
:101C3000B7003708BB000130BC35BD0DBE0D890BA8
:101C40001C2E33083602031D2B2E32083502031DCD
:101C50002B2E31083402031C342E3108B402320812
:101C6000B53B3308B63B3C140130B435B50DB60D69
:101C7000890B352E0130BB02031D1B2E3C08A10031
:101C80003D08A2003E08A3003F08B7003708A400A3
:101C90004008B8003808A5008A31A2222000210897
:101CA000B1002208B2002308B30008002000560843
:101CB000DC005708DD005808DE0003105D0D5E0DE6
:101CC000DF005F08E0006008031D6D2E0030D600C5
:101CD0000030D7000030D80008005908DC005A084E
:101CE000DD005B08DE0003105D0D5E0DDF005F08A8
:101CF000E5006508031D832E0030D6000030D700B4
:101D00000030D800080065087B3EDC005C08E00776
:101D10005608DC005708DD005808DE001030DE36BB
:101D2000DD0CDC0C890B8F2E5C08DF005F08E50002
:101D30005908DC005A08DD005B08DE001030DE3692
:101D4000DD0CDC0C890B9F2E5C08DF005F08E506CC
:101D50008030DC005C08E505D717DA17FF30D905BD
:101D6000FF30DA050030DB050030E1000030E20032
:101D70000030E3000730DC005C08E400561CC62E8F
:101D80005908E1075A08E23D5B08E33D0130D836C7
:101D9000D70CD60C890BC72E0130D935DA0DDB0DE7
:101DA000890BCD2E0130E402031DBE2E0930DC006C
:101DB0005C08E400561CE22E5908E1075A08E23D8F
:101DC0005B08E33D0130D836D70CD60C890BE32EE7
:101DD0000130E336E20CE10C890BE92E0130E4021C
:101DE000031DDA2E6108A1006208A2006308A300A7
:101DF0006008DC005C08A4006508DD005D08A50043
:101E00008A31A22220002108D6002208D700230808
:101E1000D800080020004908CF004A08D0004B082D
:101E2000D1000310500D510DD2005208D5004C08BE
:101E3000CF004D08D0004E08D1000310500D510DB9
:101E4000D2005208D40055080319322F5408550205
:101E50000318392F5503FF3A5407CF0019304F02AA
:101E6000031C392F4C08C9004D08CA004E08CB008E
:101E70000800540803190800550854020318482F95
:101E80005403FF3A5507CF0019304F0203180800DA
:101E90000630CF004F08D300CB1BD317CE1B5317F0
:101EA000CA17FF30C905FF30CA050030CB05CD1772
:101EB000FF30CC05FF30CD050030CE05540855026B
:101EC0000318842F0130CC35CD0DCE0D890B632F37
:101ED0000130D4025408550603197F2F0130D30274
:101EE0005308073903197F2F622F0130CB36CA0CF4
:101EF000C90C890B762F0130CF004F08D507550844
:101F000054060319A92F752F550854020318A92F39
:101F10000130C935CA0DCB0D890B892F0130D5028F
:101F2000540855060319A52F0130D3025308073969
:101F30000319A52F882F0130CE36CD0CCC0C890B80
:101F40009C2F0130CF004F08D40755085406031DBD
:101F50009B2FD31FBB2FFF30C906FF30CA06FF30AF
:101F6000CB060130C907003003180130CA07003022
:101F700003180130CB07531FCD2FFF30CC06FF30A5
:101F8000CD06FF30CE060130CC07003003180130FB
:101F9000CD07003003180130CE07D3014908CC0724
:101FA0004A08CD3D4B08CE3DCE1FE82FFF30CC0672
:101FB000FF30CD06FF30CE060130CC0700300318CD
:101FC0000130CD07003003180130CE07D301D30A0A
:101FD0004C08A1004D08A2004E08A3005508CF00F0
:101FE0004F08A4005308D0005008A5008A31A2224F
:101FF00020002108C9002208CA002308CB000800DD
:1020000085314C2D85317A2D8531CB2D8531F62DBD
:102010008631652E86312B2E86313F2E8631652EF8
:102020008631462E8631692E8531812D8531A22D4E
:1025A6000800080022006A08080021005C080800EC
:1025B60021009D14080001302200970008001A30FF
:1025C60021009700080022000E118E140800FF302B
:1025D60094316C24080021001D1022009713080076
:1025E60021001D142200971708000030FC006030FF
:1025F600FD0008002700131D080093318B230800F7
:102606002000A200220893317F2308002200170E23
:10261600890C890C01390800640080010131890B9D
:10262600102B0034C034273409340034013401340B
:10263600723021009900980122009601080040306E
:102646002400940020309500920108000310210018
:102656009D1C03140030093D08002000A20022083A
:10266600A10021082200EA000800013021009D0097
:1026760090309E009B019C010800443020009B0086
:102686009A01911046309C000800200011107D0828
:1026960097007C0896009331A52308002000430884
:1026A60042044104031908008030C30608002000D4
:1026B60022082200EF00200021082200EE00080078
:1026C600200022082200ED00200021082200EC0054
:1026D600080021001C082000A20021001B08200081
:1026E600A100080010302100D2072730D33D00306A
:1026F600D43D0030D53D08002000A10024009513EC
:102706002000210824009100141C872B11080800C2
:1027160022006E086F040319952B6F088A006E0855
:102726000A0093312700131108009231EA229331EF
:102736002000A5002508A600A61EA32B0130080030
:102746000030080093317523933122006C086D0424
:10275600031908006D088A006C080A009331080006
:102766002000A2002208A100A10DA10D21001D0834
:10277600200021068339210621009D001D14080032
:102786002000A30022008E1020002308933103238B
:10279600933122008E140630890BCF2B00320800AD
:1027A6000530F0007008F80701302100E502031D2E
:1027B600E12B0430F0007008F9000800F901F90A6D
:1027C6000800210055082000A4002100540820001C
:1027D600A300210053082000A20021005208200077
:1027E600A10008002000C2003D08B2003C08B1006C
:1027F6003E08C1004108B3004008B5003F08B400D8
:1028060042088931E62108002000A20122006B0857
:102816002000A1002108A2040310A20D22006A08CC
:102826002000A1002108A204220808002000B2000E
:1028360022000E1120003208B0003008AA002F082E
:10284600B1003108AB0061309531C42522000E1568
:10285600080020002908A1002A08A200A3018E3042
:10286600AC002C08A400A5018A31A2222000210870
:10287600A9002208AA002308AB0008002000B40023
:1028860070309631002694319231EA22943120003C
:10289600B2003208B3003108B2003208AE00340884
:1028A6009531352508002000A40022008E10200056
:1028B60024082038933103239431200023089331D0
:1028C6000323943122008E140630890B682C0032C3
:1028D60008002000A40022008E1020002408933156
:1028E600032394312000A3002308A40022008E14A1
:1028F6000630890B7C2C00322000240808002000BA
:1029060099016030970096011708FD001608FC0033
:1029160011102100111400302000A1000830A2007F
:1029260093316323BD30200098000800303020002A
:10293600AF002F08AA00AB01AB0A00309531C425C1
:102946009431FD302000AF002F08B0053008AF00ED
:102956002F08A300003094315624080020002208D6
:102966002200BD00200021082200BC0021005508DD
:102976002200A300210054082200A20021005308CF
:102986002200A100210052082200A0000800200019
:10299600A40022008E1020002408933103239431D2
:1029A60000309331032394312000A3002308A500AF
:1029B60022008E140630890BDE2C003220002508FA
:1029C600080062302000A10021082100CE006230FC
:1029D6002000A10021082100CD00CF144F10D10105
:1029E60024009C0128309D009F0103309A0020009E
:1029F60014102100141408009631D5269431933111
:102A06001B2394319231E222943193312223943163
:102A16009431E42494319231DE2294319331382377
:102A2600943193314023943194318224080020005C
:102A3600A80125082802031808002408A70023086F
:102A4600A60028082607840027080318270A8500F9
:102A5600000893310323953101302000A600260893
:102A6600A8071C2D2000B000E1309331C323953117
:102A760020003008A9000030AA002E08AF002F0859
:102A8600AB00A03095318A25953122000E150A300B
:102A9600890B4B2D22000E110800F20024001E1592
:102AA6007708023E860001308700160001040319EC
:102AB6006B2D7708023E860001308700403FF0000C
:102AC600413FF10070088600710887007208810096
:102AD600F901080020001608A3002308AB00170818
:102AE600A3002308AA002B08A300A4012A08A50016
:102AF600A6012508A600A50123082504A800240888
:102B06002604A9002908A2002808A1000800200020
:102B1600AD0022008E1020002D08203893310323AB
:102B2600953120002A08A4002908A3002B08AC0030
:102B36002C08A50095311A25953122008E140630F1
:102B4600890BA32D003208002000A700073094311E
:102B5600CA2495312000A6002608A8000E30A6003B
:102B66002608A8050E302806031DBB2D00300800D8
:102B76002836A6002708860087012608810001302E
:102B860008002000AE0022008E1020002E0893318F
:102B96000323953120002A08AC002C08A3002B083B
:102BA600AD002D08A4002A08963120269531220072
:102BB6008E140630890BDD2D0032080030302000DF
:102BC600AF002F08AA00AB01AB0A00309531C4252F
:102BD60095312000B0143008AF002F08A300003054
:102BE60094315624953106302000AF003030890BE1
:102BF600FA2DAF0BFA2D000008002000A6000630C3
:102C0600890B032E003222008E100630890B092E06
:102C1600003220002608A5002508A30007309431BD
:102C2600562496310630890B162E003222008E1459
:102C36000630890B1C2E003208002000A800A901CE
:102C4600240829020318080029082807A5002508D2
:102C56008600870101089331032396312000A600E0
:102C660029082307A7002708860087012608810070
:102C76000130A5002508A907232E2000AE01AA1FB2
:102C86004B2EA909AA09A90A0319AA0AAE01AE0A76
:102C96002908A1002A08A200A3018E30AC002C0846
:102CA600A4002E08AD002D08A5008A31A22220001E
:102CB6002108A9002208AA002308AB00080020006A
:102CC600A7002408A6002308A500A535A60D2708F9
:102CD6008600013087002508C03F2608C13F22082C
:102CE600A5002708023E86000130870025088100DE
:102CF6002708033E8600013087002108C03F0030C8
:102D0600C13F080020002208803AA7002408803A24
:102D16002702031D902E230821020318982E200057
:102D26002408A2002308A100080020002608803AF3
:102D3600A7002208803A2702031DA32E2108250298
:102D46000318080020002608A2002508A100080094
:102D56002000AE0021004F18CE2E20002E08AC0019
:102D66002C08A1002808AD002D08A2002A08A400FE
:102D76002908A3005D309631622696315D30200029
:102D8600AC002C08A1002B08AD002D08A2000130D4
:102D960089319121080020002B08860087018101D6
:102DA600810A080022008C018D018E013F3021002E
:102DB6008C00B0308D0039308E00013023008E003B
:102DC6008D0103308C00103024008D003F308C00C4
:102DD600D1308E00210095132A3022009E009D01DD
:102DE6002700131112151115D4302000A10012303E
:102DF600A20093315A238B1508002000A80025084D
:102E0600A7002408A600A635A70D280886000130CD
:102E160087002608C03F2708C13F280886000130E2
:102E26008700013081044131003081042308A60067
:102E36002808023E860001308700260881002808FF
:102E4600033E8600013087002108C03F2208C13FAB
:102E5600080000302000AC000030AB000030AA00B3
:102E66000030A900211C3F2F2508A9072608AA3DE6
:102E76002708AB3D2808AC3D0130A535A60DA70DAA
:102E8600A80D890B402F0130A436A30CA20CA10C6F
:102E9600890B472F2408230422042104031D352F00
:102EA6002C08A4002B08A3002A08A2002908A100C8
:102EB60008002000B2003208AF00B0012F08A100C0
:102EC6003008A2000030A300A4000330A5000030A3
:102ED600A60096318526973120002108B1003108D9
:102EE600B2003330AF002F08AA00AB01AB0A0630A0
:102EF6009531C4259731F9302000AF002F08B3056E
:102F06003235AF002F08B3043308AF002F08A300F3
:102F160006309431562408002000A701A801210894
:102F260022040319BF2FA601A60AA21BA42F013053
:102F3600A135A20D890B9B2F0130A5002508A607F8
:102F4600982F0130A735A80D890BA52F220824023A
:102F5600031DAF2F21082302031CB62F2108A3024D
:102F66002208A43B27140130A236A10C890BB72FE7
:102F76000130A602031DA42F2808A2002708A100DD
:102F860008002000B500B8013008B1003108B600CD
:102F96002F08860087010108B1003108B70002300A
:102FA600B1003108A8003508B200B3013208A90003
:102FB6003308AA003830B4003408AB0036309631F6
:102FC600AB269731C8302000A1000030A200943112
:102FD600B1249731023020003806031DF82F8831BE
:102FE600F1209731003A0319ED2F20003808031D10
:102FF600FE2F01300800003008003C34043442340F
:103006009F346A3442349034013442344D34BB34F4
:103016004034EC3447343E348E341F34BB343C34B5
:10302600043442345A348B34423404344434423403
:103036009C344F344134003480343F34323430349D
:0630460030343034313457
:020000040001F9
:04000E00F4FFFFFEFE
:00000001FF
