:1000000080313728080008007E14803120007F08E6
:10001000A0000B1F15282100941C15282000941CFB
:10002000152880310220803132280B1F2128210021
:10003000141C21282000141C2128853144258031DE
:1000400032280B1F2D282100111C2D282000111CE7
:100050002D2893310223803132288B190B1C322832
:100060009231BD2220002008FF007E10090080315F
:1000700039282100923197228031E3009231982271
:100080008031E400923199228031E50022009231E2
:10009000AA228031EA009231AB228031EB0092310A
:1000A000AC228031EC009231AD228031ED00F701BD
:1000B000F801F901FA01FB01CA3084000030850023
:1000C00019309231CF2280312030840001308500F8
:1000D00046309231CF228031A0308400013085003B
:1000E00030309231CF227E1020008331452B210009
:1000F000B9014130A9002908B90092318B22803121
:10010000003A031D86288B3115238031B930210038
:10011000A90029082000AF00F4302100AA002A0815
:100120002000B00076309731C4278031F3302100B1
:10013000A90029082000C30003302100AA002A08D2
:100140002000C400C501C50AB9302100AB002B084E
:100150002000C60076308831B92080312100AC0003
:100160002C08B800390803193803031996283808F1
:10017000031DC52800309231EA2200302100A6007C
:100180005C30A700C230A8000800C0302000B100D9
:100190000130B200F7302100A90029082000B30087
:1001A0000830B4000030B50076308931F421803158
:1001B000003A031DE62800309231EA220030210087
:1001C000A6005C30A700C230A80008000030200064
:1001D000A4000030A3000030A2001030A1002300D2
:1001E0004508F0392100A900AA01AB01AC012300A8
:1001F00044082100AD00AE01AF01B0010830AD35BB
:10020000AE0DAF0DB00D890BFF2823004308210070
:10021000B100B201B301B4011030B135B20DB30D6C
:10022000B40D890B0D293108AD073208AE3D3308F6
:10023000AF3D3408B03D2D08A9072E08AA3D2F0870
:10024000AB3D3008AC3D2C082000A80021002B0855
:100250002000A70021002A082000A600210029086C
:100260002000A5008C3103248031200024082200C6
:10027000A700200023082200A60020002208220058
:10028000A500200021082200A40057082000AA0091
:10029000220056082000A90096312A26803120002D
:1002A0002908D6002A08D7002B08D80021005408B6
:1002B0002000AA00210053082000A9009331E62362
:1002C000803120002908B4002A08B5002B08B600A8
:1002D0000030B1008030B2004430B3008D31C7250A
:1002E000803120003108C1003208C2003308C30049
:1002F00093310B23803120004108C9004208CA0015
:100300004308CB000030B1008030B2004630B3006B
:10031000220027082000AC00220026082000AB00A5
:10032000220025082000AA00220024082000A9009D
:1003300088313720803120002908B4002A08B50010
:100340002B08B6008D31C725803120003108CC0044
:100350003208CD003308CE0086318D268031200052
:100360004908D9004A08DA004B08DB008E317026B4
:100370008031200056082200B400200057082200D7
:10038000B500200058082200B600210054082000C3
:10039000AA00210053082000A9009331E6238031F0
:1003A00020002908B4002A08B5002B08B600003048
:1003B000B1000030B2004630B3008D31C725803126
:1003C00020003108C1003208C2003308C300933155
:1003D0000B23803120004108C9004208CA004308AD
:1003E000CB000030B1000030B2004830B300220032
:1003F00027082000AC00220026082000AB002200C5
:1004000025082000AA00220024082000A900883125
:100410003720803120002908B4002A08B5002B08B5
:10042000B6008D31C725803120003108CC0032085C
:10043000CD003308CE0086318D268031200049085A
:10044000D6004A08D7004B08D800210054082000E5
:10045000AA00210053082000A9009331E62380312F
:1004600020002908B4002A08B5002B08B600003087
:10047000B1000030B2004630B3008D31C725803165
:1004800020003108C1003208C2003308C300933194
:100490000B23803120004108C9004208CA004308EC
:1004A000CB000030B1000030B2004830B300220071
:1004B00027082000AC00220026082000AB00220004
:1004C00025082000AA00220024082000A900883165
:1004D0003720803120002908B4002A08B5002B08F5
:1004E000B6008D31C725803120003108CC0032089C
:1004F000CD003308CE0086318D268031200049089A
:10050000D9004A08DA004B08DB008E3170268031B2
:10051000200056082100B500200057082100B60031
:10052000200058082100B700220055082000AA002A
:10053000220054082000A90096312A26803120008C
:100540002908D6002A08D7002B08D8002100350832
:100550002000D900210036082000DA0021003708E9
:100560002000DB008E3170268031200056082200EA
:10057000B100200057082200B200200058082200D5
:10058000B30034082000CC00220035082000CD0044
:10059000220036082000CE00220031082000C900C9
:1005A000220032082000CA00220033082000CB00BD
:1005B00086318D26803120004908E6004A08E70090
:1005C0004B08E8008C318524803120006908AC009C
:1005D0006808AB006708AA006608A90088313720C0
:1005E0008031200029082200AE0020002A082200C5
:1005F000AF0020002B082200B00000302000B10026
:10060000A030B2004530B300220031082000C900FC
:10061000220032082000CA00220033082000CB004C
:10062000220034082000CC00220035082000CD0034
:10063000220036082000CE0086318D268031200031
:100640004908B4004A08B5004B08B6008D31C725EB
:100650008031200031082200AB0020003208220047
:10066000AC00200033082200AD0001309231EA22B4
:1006700022002B082100A60022002C082100A70040
:1006800022002D082100A80008002300DB01D00172
:100690000030D4000030D3000030D2000030D10050
:1006A0000030DA000030D9000030D8000030D70028
:1006B000D501D6019431E92483318B170B1724001F
:1006C0008E160B302100C9002630C8005D30890B22
:1006D000672BC80B672BC90B672B00329231AE22F8
:1006E00083318731832783318B31152383310A305E
:1006F0002000A1000030A2009231B82283310A30DC
:100700002000A1000030A2009231B822833187314D
:10071000FE27833122000E1706302100C900133056
:10072000C800AD30890B922BC80B922BC90B922BB2
:10073000003222000E139531CB25833101308D31EB
:100740002425833100302000A4000030A3000330B2
:10075000A200E830A10023005A082000A8002300CE
:1007600059082000A700230058082000A6002300F5
:1007700057082000A50089314C2183312000210831
:100780002100C8004808BA00803177208331210059
:100790002608BB002708BC002808BD0023005B0812
:1007A0008F31242783319431692483318A31522255
:1007B000833120008E1A332C22000E1706302100C0
:1007C000C9001330C800AD30890BE42BC80BE42BF3
:1007D000C90BE42B003222000E139531CB25833157
:1007E000230057092100C800230058092100C9002F
:1007F000C80A0319C90A93319E238331210048088E
:10080000200021072300D500210049082000223DB7
:100810002300D600E8302000A1000330A20023000E
:1008200056082000A400230055082000A3008831AA
:1008300002208331200021082100C8004808BA00A6
:1008400080317720833121002608BB002708BC00B7
:100850002808BD0023005B088F31242783319431A1
:10086000692483313B2C92318E2283312100C800D0
:1008700048082300DB0023005B0850060319AC2C5A
:1008800002305B060319AC2C9531CB258331230054
:100890005B03031D4E2C2100BA017D2C570921005A
:1008A000C800230058092100C900C80A0319C90A51
:1008B00093319E2383312100480820002107230023
:1008C000D500210049082000223D2300D600E83051
:1008D0002000A1000330A200230056082000A4003D
:1008E000230055082000A300883102208331200016
:1008F00021082100C8004808BA00803177208331E0
:1009000021002608BB002708BC002808BD002300E2
:100910005B088F312427833193319E23833120005C
:1009200024082300DA00200023082300D900200037
:1009300022082300D800200021082300D70094318A
:100940006924833100302300D4000030D30000300C
:10095000D2000030D100342D5B03031DE92C570970
:100960002100C800230058092100C900C80A031942
:10097000C90A93319E2383312100480820002107B2
:100980002300D500210049082000223D2300D60085
:10099000EA305602603003195502031C342D95319C
:1009A000CB258331E8302000A1000330A2002300D2
:1009B00056082000A400230055082000A300883119
:1009C00002208331200021082100C8004808BA0015
:1009D000062D22006D0823005402031DFF2C220067
:1009E0006C0823005302031DFF2C22006B08230018
:1009F0005202031DFF2C22006A0823005102031C2F
:100A0000212D9531CB2583312100BA01803177200A
:100A1000833121002608BB002708BC002808BD0040
:100A200023005B088F31242783319431692483317B
:100A300000302300D4000030D3000030D20000305A
:100A4000D10093319E238331200024082300DA0053
:100A5000200023082300D900200022082300D8000A
:100A6000200021082300D7005B082100C8004808A7
:100A70002300D0001030D1072730D23D0030D33DC5
:100A80000030D43D6300D62B2000141024009D1F9D
:100A9000822E9D13F9017708023E860001308700FF
:100AA000403FF300413FF40073088600740887005C
:100AB00001308100F70108002100CC1808004B0824
:100AC000F3007308F7004B08860001308700010827
:100AD000F3007308E2004B08860001308700013004
:100AE000413FF8000430F3007308CB074B08663A27
:100AF000031D7E2D6230F3007308CB004C104B08B1
:100B00004A060319CC1424001E140230F3007308A3
:100B1000F900080024009E140230F3007308F90065
:100B2000080024001E1F9D2D0130F30073082100D2
:100B3000CE07043095313A2508007B08F4007A0886
:100B4000F300F436F30C7308240099007A1CAD2DE1
:100B50000B30F3007308F90008000330F30073084A
:100B6000F900080024001E1FBE2D0130F300730899
:100B70002100CE07043095313A2508009E147B08E9
:100B8000F4007A08F3007408F300F40106307305EA
:100B9000F50000307405F600F0307504FA000030FE
:100BA0007604FB007A142100E001E00A0230F30031
:100BB0007308F9000800210060030319F72D780875
:100BC000860001308700403FFA00413FFB00780873
:100BD000033E860001308700403FD500413FD600EC
:100BE00078088600013087000130423FE1007A0832
:100BF000240099007A1C012E0530F3007308F900D7
:100C000008000330F3007308F900080024001E1FD9
:100C1000142E0130F30073082100CE0724001E13A8
:100C2000053095313A25080001302100E102610AC2
:100C3000031D2D2E0530F3007308F8070130E20282
:100C4000031D262E003095313A25080024009E14FD
:100C50000230F3007308F9000800210055088600EF
:100C60005608870001082400990001302100D507AB
:100C70000030D63D080024001E1F492E0130F3002D
:100C800073082100CE07043095313A2524001E1345
:100C900008009E150830F3007308F90008000830BA
:100CA000F3007308F90024009E1508002100550880
:100CB00086005608870024001908810001302100B1
:100CC000D5070030D63D0130E10203196E2E240015
:100CD0009E120630F3007308F900722E24009E164F
:100CE00093318D2324001E160800003095313A25DB
:100CF00008000130F30073082100CE07063095315B
:100D00003A250800790884000C3004020318792E73
:100D100090310435003E8200080020004908CF00D1
:100D20004A08D0004B08D1000310500D510DD200DD
:100D30005208D5004C08CF004D08D0004E08D10015
:100D40000310500D510DD2005208D400550803195C
:100D5000B52E540855020318BC2E5503FF3A54070C
:100D6000CF0019304F02031CBC2E4C08C9004D089F
:100D7000CA004E08CB0008005408031908005508A3
:100D800054020318CB2E5403FF3A5507CF001930F5
:100D90004F02031808000630CF004F08D300CB1BCA
:100DA000D317CE1B5317CA17FF30C905FF30CA052A
:100DB0000030CB05CD17FF30CC05FF30CD0500301E
:100DC000CE05540855020318072F0130CC35CD0D40
:100DD000CE0D890BE62E0130D402540855060319B6
:100DE000022F0130D302530807390319022FE52ED1
:100DF0000130CB36CA0CC90C890BF92E0130CF005B
:100E00004F08D5075508540603192C2FF82E5508FE
:100E1000540203182C2F0130C935CA0DCB0D890B94
:100E20000C2F0130D502540855060319282F013024
:100E3000D302530807390319282F0B2F0130CE3660
:100E4000CD0CCC0C890B1F2F0130CF004F08D407DD
:100E500055085406031D1E2FD31F3E2FFF30C90611
:100E6000FF30CA06FF30CB060130C9070030031837
:100E70000130CA07003003180130CB07531F502F31
:100E8000FF30CC06FF30CD06FF30CE060130CC0758
:100E9000003003180130CD07003003180130CE07B1
:100EA000D3014908CC074A08CD3D4B08CE3DCE1FA3
:100EB0006B2FFF30CC06FF30CD06FF30CE06013061
:100EC000CC07003003180130CD0700300318013083
:100ED000CE07D301D30A4C08A1004D08A2004E084A
:100EE000A3005508CF004F08A4005308D0005008B5
:100EF000A5008A31B02220002108C9002208CA00BA
:100F00002308CB00080002302000AF000430AE0000
:100F1000BA30890B892FAE0B892FAF0B892F0000B8
:100F20009231A222873126302000AE002E08A30085
:100F3000063094311024873106302000AE002E0890
:100F4000A300113094311024873102302000AE000C
:100F50002E08A30005309431102487312130200061
:100F6000A9009830AA000530AE002E08AB000A3068
:100F700095317425873121302000A9009830AA00CE
:100F80000530AE002E08AB00103095317425873146
:100F90002000A301A30A023094311024873170305D
:100FA0009531EA2587312000A301A30A013094314D
:100FB00010248731F1302000AE002E08A300043049
:100FC0009431102487310E302000AE002E08A3008B
:100FD000003094311024873106302000AE002E08F6
:100FE000A3001D309431102487312000A301A30AEF
:100FF0001C309431102422000E1108000800080053
:101004002000A701A8012108220403193228A601FF
:10101400A60AA21B17280130A135A20D890B0E28A0
:101024000130A5002508A6070B280130A735A80D17
:10103400890B182822082402031D222821082302D0
:10104400031C29282108A3022208A43B27140130E9
:10105400A236A10C890B2A280130A602031D1728E9
:101064002808A2002708A10008002000B0018E3043
:10107400AD002D08AF00AC1F4C28A909AA09AB0983
:10108400AC09A90A0319AA0A0319AB0A0319AC0A81
:10109400B001B00AFF302C0503195C280130AC36CE
:1010A400AB0CAA0CA90C890B51280130AD002D08FA
:1010B400AF074C282908A1002A08A2002B08A30086
:1010C4002F08AD002D08A4003008AE002E08A5009E
:1010D4008A31B02220002108A9002208AA0023088E
:1010E400AB0008009231B32288319231C922883191
:1010F400003A031977281F3093316D2388319231D8
:10110400912288319231E3228831003A03198428EC
:101114009231AE228831933126238831200022086F
:10112400C8002108C7004808AA004708A90093314D
:10113400E623883120002908B1002A08B2002B08D0
:10114400B3001230B4008330B5004430B6008D31A2
:10115400C72520003108C4003208C5003308C60082
:101164004408C1004508C2004608C3000800200026
:10117400CA004C30BC000030BD004308C70047081B
:10118400BE000130BF000030C0004A089331AF23D5
:101194008831003A0319FD2801302000C700450AB0
:1011A400D428C735890BD3284708FF3EC800450318
:1011B400FF3A4407013E890AE028C835890BDF2835
:1011C4004808C9004908CB004B08C7004708CC05AC
:1011D4004503FF3A4407013E890AF2280310CC0C68
:1011E400FF3E031DF0284C08C7004608860087010F
:1011F4004708810008000030080021004F08200043
:10120400A100210050082000A20021005108200064
:10121400A300210052082000A4002200200920007D
:10122400A500220021092000A60022002209200096
:10123400A700220023092000A800A50A0319A60A72
:101244000319A70A0319A80A2508A1072608A23D1D
:101254002708A33D2808A43D22003C082000A9003B
:1012640022003D082000AA00AB01AC0124082C0296
:10127400031D462923082B02031D462922082A029E
:10128400031D46292108290203184A2901300800B0
:101294000030080000302000AD000030AC00003009
:1012A400AB000030AA0024082304220421040319FB
:1012B4009629AE01AE0AA41B6B290130A135A20DFB
:1012C400A30DA40D890B60290130A9002908AE07DC
:1012D4005D290130AA35AB0DAC0DAD0D890B6C2920
:1012E40024082802031D802923082702031D8029BE
:1012F40022082602031D802921082502031C8B29AC
:101304002108A5022208A63B2308A73B2408A83BE2
:101314002A140130A436A30CA20CA10C890B8C292D
:101324000130AE02031D6B292D08A4002C08A30074
:101334002B08A2002A08A10008002000A400210014
:101344004C18E12902302000A300220886008701FE
:10135400230881002108A30021004A0A86000130E5
:1013640087002000230881002408A30021004A08E4
:1013740086000130870020002308810021004A08EC
:10138400023E86000130870020002208C03F003062
:10139400C13F0430A30023082100CA074A08663A63
:1013A400031DDA2962302000A30023082100CA00AB
:1013B400CC104B084A06031DE7294C14E7292000EA
:1013C4002208860087018101810A20002208860004
:1013D400870102300106031D08001414790803195B
:1013E4000800EF292000BA00BB01A801A80A3A08A6
:1013F400B600B7013608A9003708AA003B30B80088
:101404003808AB0033309631E0268931C8302000EB
:10141400A1000030A20094318124893102302000DF
:101424003B06031D1B2A8831FF208931003A03192A
:10143400102A20003B080319212A00300800320832
:10144400AA003108A9003408B6003608AB003A08EF
:10145400B700B8013708AC003808AD003B30B9001C
:101464003908AE009631B8268931C8302000A10071
:101474000030A200943181248931023020003B06DF
:10148400031D4A2A8831FF208931003A03193F2A73
:1014940020003B08031D502A0130080000300800DA
:1014A40000302000B4000030B3000030B2000A3035
:1014B400B100953157258A3120002108B100220856
:1014C400B200B301B4010030AD00A030AE00FF3073
:1014D400AF00FF30B0003108AD073208AE3D33082D
:1014E400AF3D3408B03D3008B4002F08B3002E08D7
:1014F400B2002D08B1003408A4003308A300320858
:10150400A2003108A1000030A8000030A700033079
:10151400A600E830A500973161278A312000210810
:10152400AD002208AE002308AF002408B0000C3040
:10153400B036AF0CAE0CAD0C890B9A2A2D082100E5
:10154400CF0720002E082100D03D20002F082100C5
:10155400D13D200030082100D23D0800200024089D
:101564000319B92A230822042104031DCA2A0030BE
:10157400A1000030A2000030A30008000130A60042
:101584002608A4070130A336A20CA10C890BC52A96
:10159400FE3023050319E32AC02A0130A6002608D9
:1015A400A4070130A107003003180130A20700305E
:1015B40003180130A3070130A336A20CA10C890B38
:1015C400DE2AFF3023050319F02ACF2A0130A402B2
:1015D4000130A135A20DA30D890BEB2AA21BF62A1B
:1015E400023024020318E82A2418FE2AFF30A10539
:1015F4007F30A205FF30A3050310A40C2408A60025
:10160400A701A8011030A635A70DA80D890B052B3D
:101614002608A1042708A2042808A30425080319FE
:101624000800A317080040302000BC003C08BF009D
:101634003F30BC003C08AF00F430BD003D08B000B2
:1016440076309731C4278B31003A031D2D2B00309F
:101654009231EA220800E0302000BC003C08BF00C0
:10166400A830B1000130B2008830BC003C08B3009F
:101674001830B4000030B50076308931F4218B3154
:10168400003A031D492B00309231EA22080023005E
:1016940029082000BC00BD013C08BD00BC0123009A
:1016A400280820003C072100D30020003D0803182F
:1016B4003D0A2100D40023002B082000BC00BD01FA
:1016C4003C08BD00BC0123002A0820003C0722007E
:1016D400D60020003D0803183D0A2200D70023004D
:1016E4002D082000BC00BD013C08BD00BC01230046
:1016F4002C0820003C072200D40020003D080318D9
:101704003D0A2200D50001309231EA2208003B3024
:10171400953191258B31003A0319FB2B04302000BD
:10172400B3003308AF0037309331D3238B3120001B
:10173400371CA52B3808B3003308A70021005E0826
:10174400943126248B312000B71CB22B21005D0874
:101754002000B3003308A7003908943126248B31C4
:101764002000371DF52B3A08B300B401B501B601CA
:1017740036082200ED00200035082200EC0020008D
:1017840034082200EB00200033082200EA00003075
:101794002000A4000030A3000330A200E830A10020
:1017A40022006D082000A80022006C082000A70079
:1017B40022006B082000A60022006A082000A50071
:1017C400973161278B31200024082200ED0020008E
:1017D40023082200EC00200022082200EB00200055
:1017E40021082200EA002000B71DFB2B923194222D
:1017F4008B313B30953191258B31003A0319080028
:10180400892B2000AB01A41F142CA109A209A30950
:10181400A409A10A0319A20A0319A30A0319A40A11
:10182400AB01AB0AA81F252CA509A609A709A8097D
:10183400A50A0319A60A0319A70A0319A80A01305D
:10184400A9002908AB060030AF000030AE0000301C
:10185400AD000030AC002408230422042104031941
:101864006E2CAA01AA0AA41B432C0130A135A20D97
:10187400A30DA40D890B382C0130A9002908AA074F
:10188400352C0130AC35AD0DAE0DAF0D890B442CAC
:1018940024082802031D582C23082702031D582C52
:1018A40022082602031D582C21082502031C632C40
:1018B4002108A5022208A63B2308A73B2408A83B2D
:1018C4002C140130A436A30CA20CA10C890B642C9B
:1018D4000130AA02031D432C2B0803197C2CAC09EC
:1018E400AD09AE09AF09AC0A0319AD0A0319AE0A72
:1018F4000319AF0A2F08A4002E08A3002D08A20084
:101904002C08A100080020006608EA006708EB0024
:101914006808EC0003106B0D6C0DED006D082100E0
:10192400A5002508031DA02C00302000E90000308C
:10193400E8000030E7000030E600080020006608F8
:10194400EA006708EB006808EC001730EC36EB0C93
:10195400EA0C890BA82C6A08ED006D082100A00090
:101964002000E717FF30E605FF30E7050030E80503
:1019740066082100A100200067082100A2002000C1
:1019840068082100A300A4018E30A502A51FEA2C3B
:101994002508803A8F3E0318D92C00302000E90036
:1019A4000030E8000030E7000030E60008000130B5
:1019B4002100A436A30CA20CA10C890BDA2C013053
:1019C4002000EA006A082100A5070319062DD92C76
:1019D40018302502031C022D00302000E9000030DD
:1019E400E8000030E7000030E60008000130210084
:1019F400A135A20DA30DA40D890BF92C0130A5026C
:101A040021002508031DF82C20080319142DA10911
:101A1400A209A309A409A10A0319A20A0319A30A82
:101A24000319A40A24082000E90021002308200047
:101A3400E800210022082000E700210021082000FE
:101A4400E60008002000B800FF30B5003508B900F2
:101A540038080319682D2100DC0104305C020318E6
:101A64004E2D5C08973191278D312000B101B10AC8
:101A740039309331FB238D3120008E193E2D933163
:101A840052238D31003A031D4E2D01302000B50044
:101A940035082100DC072F2D21005C082000B5004B
:101AA400B6013508A1003608A2000030A300A40046
:101AB4000330A5000030A600963192268D31200017
:101AC4002108B70037082100DC00BF2D93315223D1
:101AD4008D312000B5003508BA000130B500350855
:101AE4002100DB0720003A08B50035082100DA0799
:101AF40005305B02031CA92D5C080319902D2000FE
:101B04003A080319902D043021005A02031C902D29
:101B14000130DC025C08973191278D312100DB0113
:101B2400DA0120003A08031DA72D033021005C02CE
:101B34000318A72D01302000B50035082100DC076B
:101B44005C0897319127013008000030080020001C
:101B54003A08031DBD2D033021005C020318BD2D7E
:101B640001302000B50035082100DC075C089731FE
:101B74009127013008000030080020003A08031DB6
:101B8400C52D013008000030080020003408B700DB
:101B94003508B8003608B9000310380D390DBA00FD
:101BA4003A08BF003F08031DDE2D0030B1000030AD
:101BB400B2000030B30008003108B7003208B800A2
:101BC4003308B9000310380D390DBA003A08C000C3
:101BD4004008031DF42D0030B1000030B200003085
:101BE400B30008000030BC000030BD000030BE006F
:101BF40089304007B7003708BF023408B7003508FA
:101C0400B8003608B9001030B936B80CB70C890BD7
:101C1400062E3708BA003A08C0003108B700320867
:101C2400B8003308B9001030B936B80CB70C890BBA
:101C3400162E3708BA003A08C0068030B7003708B5
:101C4400C005B517FF30B405FF30B5050030B60543
:101C5400B217FF30B105FF30B2050030B3051830BC
:101C6400B7003708BB000130BC35BD0DBE0D890B74
:101C7400362E33083602031D452E32083502031D65
:101C8400452E31083402031C4E2E3108B4023208AA
:101C9400B53B3308B63B3C140130B435B50DB60D35
:101CA400890B4F2E0130BB02031D352E3C08A100C9
:101CB4003D08A2003E08A3003F08B7003708A4006F
:101CC4004008B8003808A5008A31B0222000210855
:101CD400B1002208B2002308B3000800200056080F
:101CE400DC005708DD005808DE0003105D0D5E0DB2
:101CF400DF005F08E0006008031D872E0030D60077
:101D04000030D7000030D80008005908DC005A0819
:101D1400DD005B08DE0003105D0D5E0DDF005F0873
:101D2400E5006508031D9D2E0030D6000030D70065
:101D34000030D800080065087B3EDC005C08E00742
:101D44005608DC005708DD005808DE001030DE3687
:101D5400DD0CDC0C890BA92E5C08DF005F08E500B4
:101D64005908DC005A08DD005B08DE001030DE365E
:101D7400DD0CDC0C890BB92E5C08DF005F08E5067E
:101D84008030DC005C08E505D717DA17FF30D90589
:101D9400FF30DA050030DB050030E1000030E200FE
:101DA4000030E3000730DC005C08E400561CE02E41
:101DB4005908E1075A08E23D5B08E33D0130D83693
:101DC400D70CD60C890BE12E0130D935DA0DDB0D99
:101DD400890BE72E0130E402031DD82E0930DC0004
:101DE4005C08E400561CFC2E5908E1075A08E23D41
:101DF4005B08E33D0130D836D70CD60C890BFD2E99
:101E04000130E336E20CE10C890B032F0130E402CC
:101E1400031DF42E6108A1006208A2006308A30058
:101E24006008DC005C08A4006508DD005D08A5000E
:101E34008A31B02220002108D6002208D7002308C6
:101E4400D80008002100C50000302000C900483037
:101E5400CA004230CB0021003B082000CC00210006
:101E64003C082000CD0021003D082000CE00863132
:101E74008D268F31200049082100BB0020004A082C
:101E84002100BC0020004B082100BD0000302000D0
:101E9400D6002030D7004130D80021003B08200074
:101EA400D90021003C082000DA0021003D08200070
:101EB400DB008E3170268F31200056082100BB00D4
:101EC400200057082100BC00200058082100BD0054
:101ED4003B082000E60021003C082000E700210028
:101EE4003D082000E8008C3185248F3120006708EC
:101EF4002100C700200066082100C600C50EF0308E
:101F0400C5059331C1238F312000EE006E082100F6
:101F1400C40044082000EE006E082100C5044508F2
:101F24002000EE006E082100BE003A082000EE00FA
:101F34006E082100BF0047082000EE006E08210053
:101F4400C00046082000EE006E082100C100883160
:101F540074208F3120004108CC004208CD00430892
:101F6400CE000030C9008030CA00BF30CB008631BB
:101F74008D268F3120004908D9004A08DA004B0821
:101F8400DB000030D600C830D7004230D8008E3194
:101F940070268F3120005608E6005708E7005808DD
:101FA400E8008C3185248F31200067082100C700A8
:101FB400200066082100C60046082000EE006E08D6
:101FC4002100C2005C082000EE006E082100C3005E
:101FD40006302000EE006E08B100BE309331FB23C2
:101FE4008F3120008E19F32F00308D3124258F314D
:101FF400003A031DEA2F8B318923080085315C2DBB
:1020040085318A2D8531DB2D8631062E8631752E5C
:1020140086313B2E86314F2E8631752E8631562ED3
:0C2024008631792E8531912D8531B22D49
:1025160021006308080021005908080021009D14C5
:1025260008002100D80108000134013405340130C7
:102536002200970008001A302100970008002200A8
:102546000E118E140800FF3094313C240800C0346C
:1025560027340934003421001D1022009713080087
:1025660021001D142200971708000030FC0060307F
:10257600FD0008002700131D0800933145230800BD
:102586002000A20022089331392308002200170EEA
:10259600890C890C01390800640080010131890B1E
:1025A600D02A003472302100990098012200960149
:1025B6000800403024009400203095009201080065
:1025C600031021009D1C03140030093D0800200063
:1025D600A2002208A10021082100E3000800013022
:1025E60021009D0090309E009B019C010800443014
:1025F60020009B009A01911046309C0008002000A4
:1026060011107D0897007C08960093315F2308001F
:102616002000430842044104031908008030C30621
:102626000800200022082200E900200021082200DC
:10263600E8000800200022082200E7002000210808
:102646002200E600080021001C082000A20021004C
:102656001B082000A100080010302100CF072730FA
:10266600D03D0030D13D0030D23D08002000A10011
:10267600240095132000210824009100141C412BEE
:102686001108080022006808690403194F2B69081D
:102696008A0068080A009331270013110800923156
:1026A600A62293312000A5002508A600A61E5D2BB4
:1026B600013008000030080093312F2393312200A7
:1026C600660867040319080067088A0066080A0096
:1026D600933108002000A2002208A100A10DA10D3F
:1026E60021001D08200021068339210621009D00B6
:1026F6001D1408002000A30022008E1020002308CD
:102706009231C322933122008E140630890B892B15
:10271600003208000530F0007008F807013021008B
:10272600E202031D9B2B0430F0007008F90008003C
:10273600F901F90A0800210052082000A40021002E
:1027460051082000A300210050082000A20021000B
:102756004F082000A10008002000C2003D08B2007A
:102766003C08B1003E08C1004108B3004008B5006E
:102776003F08B40042088931F42108002000A20174
:10278600210064082000A1002108A2040310A20D64
:10279600210063082000A1002108A20422080800E5
:1027A6002000B20022000E1120003208B0003008CE
:1027B600AA002F08B1003108AB0061309531AE2573
:1027C60022000E15080020002908A1002A08A200F0
:1027D600A3018E30AC002C08A400A5018A31B022DA
:1027E60020002108A9002208AA002308AB0008003F
:1027F6002000B40070309531EA2593319231A6223B
:1028060093312000B2003208B3003108B20032081A
:10281600AE00340895311F2508002000A4002200D0
:102826008E102000240820389231C32294312000D3
:1028360023089231C322943122008E140630890B6C
:10284600222C003208002000A9002908A800280828
:102856002100DE0020002708A80028082100DD004E
:1028660020002708A8002808A400290894319A24E3
:1028760008002000A40022008E10200024089231B7
:10288600C32294312000A3002308A40022008E1442
:102896000630890B4C2C003220002408080020004A
:1028A60099016030970096011708FD001608FC0094
:1028B600111021001114FF302000A1000730A200E2
:1028C60093311D23BD3020009800080030302000D1
:1028D600AF002F08AA00AB01AB0A00309531AE2538
:1028E6009431FD302000AF002F08B0053008AF004E
:1028F6002F08A3000030943110240800200022087D
:102906002200BD00200021082200BC002100520840
:102916002200A300210051082200A2002100500835
:102926002200A10021004F082200A000080020007C
:10293600A6002608A5002508A100013096316F26BD
:10294600943120002408A5002508A1000230963104
:102956006F2694312000A101A10A003096316F261E
:1029660008002000A40022008E10200024089231C6
:10297600C322943100309231C32294312000A30047
:102986002308A50022008E140630890BC82C0032BD
:1029960020002508080062302000A100210821003F
:1029A600CB0062302000A10021082100CA00CC140F
:1029B6004C10CE0124009C0128309D009F0103305D
:1029C6009A002000141021001414080097310A27D9
:1029D60094319231D522943192319E2294319231A2
:1029E600DC2294319431CE24943192319A2294315E
:1029F6009231F22294319231FA2294319431522456
:102A060008002000A8012508280203180800240849
:102A1600A7002308A600280826078400270803180D
:102A2600270A850000089231C32295310130200023
:102A3600A6002608A807062D2000B000E130933135
:102A46007D23953120003008A9000030AA002E0809
:102A5600AF002F08AB00A0309531742595312200C8
:102A66000E150A30890B352D22000E110800F200D2
:102A760024001E157708023E8600013087001600E6
:102A860001040319552D7708023E860001308700A0
:102A9600403FF000413FF100700886007108870052
:102AA60072088100F901080020001608A300230817
:102AB600AB001708A3002308AA002B08A300A40153
:102AC6002A08A500A6012508A600A50123082504B5
:102AD600A80024082604A9002908A2002808A100A5
:102AE60008002000AD0022008E1020002D0820389E
:102AF6009231C322953120002A08A4002908A30098
:102B06002B08AC002C08A500953104259531220030
:102B16008E140630890B8D2D003208002000A70088
:102B260007309431B42495312000A6002608A80069
:102B36000E30A6002608A8050E302806031DA52D72
:102B4600003008002836A6002708860087012608D8
:102B56008100013008002000AE0022008E10200007
:102B66002E089231C322953120002A08AC002C0889
:102B7600A3002B08AD002D08A4002A0896310A26CA
:102B8600953122008E140630890BC72D00320800BD
:102B960030302000AF002F08AA00AB01AB0A00308E
:102BA6009531AE2595312000B0143008AF002F08BE
:102BB600A300003094311024953106302000AF0078
:102BC6003030890BE42DAF0BE42D00000800200007
:102BD600A6000630890BED2D003222008E1006303D
:102BE600890BF32D003220002608A5002508A30036
:102BF60007309431102495310630890B002E0032AF
:102C060022008E140630890B062E003208002000A2
:102C1600A800A90124082902031808002908280782
:102C2600A50025088600870101089231C322963146
:102C36002000A60029082307A70027088600870189
:102C4600260881000130A5002508A9070D2E2000C1
:102C5600AE01AA1F352EA909AA09A90A0319AA0AAB
:102C6600AE01AE0A2908A1002A08A200A3018E30EF
:102C7600AC002C08A4002E08AD002D08A5008A3152
:102C8600B02220002108A9002208AA002308AB00D0
:102C960008002000A7002408A6002308A500A535E3
:102CA600A60D27088600013087002508C03F2608A4
:102CB600C13F2208A5002708023E86000130870092
:102CC600250881002708033E860001308700210879
:102CD600C03F0030C13F08002000A200A301220827
:102CE600230091002000210823009300951315135B
:102CF600151500308B1B01302000A3008B135530B7
:102D060023009600AA30960095149518882E151162
:102D16002000230C031C8B1303188B1708002000BC
:102D26002208803AA7002408803A2702031D9D2E18
:102D3600230821020318A52E20002408A200230838
:102D4600A100080020002608803AA7002208803A41
:102D56002702031DB02E21082502031808002000B3
:102D66002608A2002508A100080021004C18D92E2B
:102D760020002A08A2002908A1002B08AF002F086E
:102D8600A3002D08A5002C08A4005830973135273C
:102D9600963158302000AF002F08A1002E08B00051
:102DA6003008A200013089319F21080020002E083A
:102DB600860087018101810A08002000AE002100FB
:102DC6004C18032F20002E08AC002C08A100280860
:102DD600AD002D08A2002A08A4002908A3005D3032
:102DE60096314C2696315D302000AC002C08A100AF
:102DF6002B08AD002D08A200013089319F21080063
:102E060020002B08860087018101810A0800220024
:102E16008C018D018E013F3021008C00B0308D0079
:102E260039308E00013023008E008D0103308C0076
:102E3600103024008D003F308C00D1308E002100F0
:102E460095132A3022009E009D01270013111215AA
:102E5600111503302000A1000030A2009331142385
:102E66008B1508002000A8002508A7002408A60046
:102E7600A635A70D28088600013087002608C03F22
:102E86002708C13F280886000130870001308104E9
:102E96004131003081042308A6002808023E86003E
:102EA60001308700260881002808033E860001308D
:102EB60087002108C03F2208C13F080000302000DB
:102EC600AC000030AB000030AA000030A900211C85
:102ED600742F2508A9072608AA3D2708AB3D280810
:102EE600AC3D0130A535A60DA70DA80D890B752F94
:102EF6000130A436A30CA20CA10C890B7C2F24084C
:102F0600230422042104031D6A2F2C08A4002B0885
:102F1600A3002A08A2002908A10008002000B20088
:102F26003208AF00B0012F08A1003008A20000301F
:102F3600A300A4000330A5000030A6009631922617
:102F4600973120002108B1003108B2003330AF00BC
:102F56002F08AA00AB01AB0A06309531AE25973192
:102F6600F9302000AF002F08B3053235AF002F0827
:102F7600B3043308AF002F08A300063094311024A1
:102F860008002000B500B8013008B1003108B600CD
:102F96002F08860087010108B1003108B70002300A
:102FA600B1003108A8003508B200B3013208A90003
:102FB6003308AA003830B4003408AB0036309631F6
:102FC600E0269731C8302000A1000030A2009431DD
:102FD60081249731023020003806031DF82F8831EE
:102FE600FF209731003A0319ED2F20003808031D02
:102FF600FE2F01300800003008003C34043442340F
:103006009F346A3442349034013442344D34BB34F4
:103016004034EC3447343E348E341F34BB343C34B5
:10302600043442345A348B34423404344434423403
:103036009C344F344134003480343F34313430349E
:0630460030343034313457
:020000040001F9
:04000E00F4FFFFFEFE
:00000001FF
