:1000000080313728080008007E14803120007F08E6
:10001000A0000B1F15282100941C15282000941CFB
:10002000152888310120803132280B1F212821001A
:10003000141C21282000141C21288D313F258031DB
:1000400032280B1F2D282100111C2D282000111CE7
:100050002D289D31DC25803132288B190B1C32284C
:100060009D31892520002008FF007E100900803185
:10007000392821008731FF278031E800A130840032
:100080009D30850022001200E2001200E300120001
:10009000E4001200E5001200E6001200E700F7019C
:1000A000F801F901FA01FB01DA3084000030850023
:1000B0000E309D319B258031203084000130850039
:1000C00042309D319B258031A03084000130850075
:1000D00037309D319B257E1020008531572D210022
:1000E000B9014130A9002908B9009D316A25803144
:1000F000003A031D7E28963127268031B930210031
:10010000A90029082000AF00F4302100AA002A0825
:100110002000B0007630923195228031F3302100FA
:10012000A90029082000C30003302100AA002A08E2
:100130002000C400C501C50AB9302100AB002B085E
:100140002000C600763093318F2380312100AC002F
:100150002C08B80039080319380303198E28380809
:10016000031DBD2800309D31BC2500302100A600B4
:100170005C30A700C230A8000800C2302000B100E7
:100180000130B200F7302100A90029082000B30097
:100190000830B4000030B5007630953164258031E8
:1001A000003A031DDE2800309D31BC2500302100BF
:1001B000A6005C30A700C230A80008000030200074
:1001C000A4000030A3000030A2001030A1002300E2
:1001D0004708F0392100A900AA01AB01AC012300B6
:1001E00046082100AD00AE01AF01B0010830AD35C9
:1001F000AE0DAF0DB00D890BF72823004508210087
:10020000B100B201B301B4011030B135B20DB30D7C
:10021000B40D890B05293108AD073208AE3D33080E
:10022000AF3D3408B03D2D08A9072E08AA3D2F0880
:10023000AB3D3008AC3D2C082000A80021002B0865
:100240002000A70021002A082000A600210029087C
:100250002000A5008831A920803120002408220038
:10026000AB00200023082200AA0020002208220060
:10027000A900200021082200A80055082000AA009B
:10028000220054082000A90091315D218031200016
:100290002908C9002A08CA002B08CB0022005708E9
:1002A0002000AA00220056082000A9009F3115272F
:1002B000803120002908B4002A08B5002B08B600B8
:1002C0000030B1008030B2004430B3008A31EC22FB
:1002D000803120003108C1003208C2003308C30059
:1002E0009D31E525803120004108D9004208DA001F
:1002F0004308DB000030B1008030B2004630B3006C
:1003000022002B082000AC0022002A082000AB00AD
:10031000220029082000AA00220028082000A900A5
:1003200093310D23803120002908B4002A08B5003C
:100330002B08B6008A31EC22803120003108DC0025
:100340003208DD003308DE008C3149248031200082
:100350005908CC005A08CD005B08CE008B3195239C
:100360008031200049082200B20020004A08220003
:10037000B30020004B082200B40057082000AA0058
:10038000220056082000A9009F3115278031200047
:100390002908B4002A08B5002B08B6000030B100C7
:1003A0000030B2004630B3008A31EC2280312000A8
:1003B0003108C1003208C2003308C3009D31E52571
:1003C000803120004108D9004208DA004308DB00F0
:1003D0000030B1000030B2004830B30022002B08DA
:1003E0002000AC0022002A082000AB0022002908CF
:1003F0002000AA00220028082000A90093310D2324
:10040000803120002908B4002A08B5002B08B60066
:100410008A31EC22803120003108DC003208DD0016
:100420003308DE008C314924803120005908C9008E
:100430005A08CA005B08CB00220057082000AA0017
:10044000220056082000A9009F3115278031200086
:100450002908B4002A08B5002B08B6000030B10006
:100460000030B2004630B3008A31EC2280312000E7
:100470003108C1003208C2003308C3009D31E525B0
:10048000803120004108D9004208DA004308DB002F
:100490000030B1000030B2004830B30022002B0819
:1004A0002000AC0022002A082000AB00220029080E
:1004B0002000AA00220028082000A90093310D2363
:1004C000803120002908B4002A08B5002B08B600A6
:1004D0008A31EC22803120003108DC003208DD0056
:1004E0003308DE008C314924803120005908CC00CB
:1004F0005A08CD005B08CE008B3195238031200057
:1005000049082100B50020004A082100B60020005B
:100510004B082100B700220053082000AA00220047
:1005200052082000A90091315D2180312000290866
:10053000C9002A08CA002B08CB002100350820007A
:10054000CC00210036082000CD0021003708200013
:10055000CE008B3195238031200049082200AF0066
:1005600020004A082200B00020004B082200B10001
:1005700032082000DC00220033082000DD002200C9
:1005800034082000DE0022002F082000D9002200BD
:1005900030082000DA00220031082000DB008C3116
:1005A0004924803120005908E6005A08E7005B081A
:1005B000E8008A314D22803120006908AC006808CB
:1005C000AB006708AA006608A90093310D238031AB
:1005D000200029082300A70020002A082300A800E3
:1005E00020002B082300A90000302000B100A0301B
:1005F000B2004530B30022002F082000D9002200AD
:1006000030082000DA00220031082000DB00220040
:1006100032082000DC00220033082000DD00220028
:1006200034082000DE008C31492480312000590834
:10063000B4005A08B5005B08B6008A31EC2280315C
:10064000200031082200AC00200032082200AD005A
:10065000200033082200AE0001309D31BC2522006D
:100660002C082100A60022002D082100A70022004E
:100670002E082100A800080021003808370436049D
:10068000031D7C2B350834043304031D542B213007
:100690002200B8000030B90000302100B300003063
:1006A000B4000030B500080000302000A100003088
:1006B000A2000030A300210033082000A400210084
:1006C00034082000A500210035082000A600923142
:1006D000D12283310318742B10302100B300C930AC
:1006E000B4003F30B500080010302100B300C9301D
:1006F000B400BF30B5000800350834043304031DCE
:10070000A92B00302000A1000030A2000030A3007F
:10071000210036082000A400210037082000A50091
:10072000210038082000A6009231D122833103181D
:10073000A12B00302100B3000030B4000030B50020
:10074000080010302100B3004930B4004030B5003B
:10075000080036082000C400210037082000C5002A
:10076000210038082000C6009131C52183312000C6
:1007700044082100B900200045082100BA002000EB
:1007800046082100BB0033082000C40021003408C3
:100790002000C500210035082000C6009131C52188
:1007A0008331200044082100BC00200045082100BE
:1007B000BD00200046082100BE0039082000A1002D
:1007C00021003A082000A20021003B082000A300DD
:1007D00021003C082000A40021003D082000A500C5
:1007E00021003E082000A6009231D1228331031C53
:1007F000A72C210036082000B10021003708200076
:10080000B200210038082000B30021003308200086
:10081000B400210034082000B50021003508200074
:10082000B6008A31EC228331200031082100C20059
:10083000200032082100C300200033082100C4003A
:100840004208A3004308A4004408A5008E3188266E
:10085000833121002308C5002408C6002508C700ED
:1008600036082000A100210037082000A200210046
:1008700038082000A3000030A4000030A50000309C
:10088000A6009231D122833103189F2C2100330816
:100890002000A100210034082000A200210035081A
:1008A0002000A3000030A4000030A5000030A60006
:1008B0009231D1228331031C7E2C10302000D900CC
:1008C0004930DA004030DB00210045082000DC0020
:1008D000210046082000DD00210047082000DE003E
:1008E0008C3149248331200059082100C5002000A3
:1008F0005A082100C60020005B089D2C1030200003
:10090000E6004930E7004030E800210045082000BB
:10091000E900210046082000EA00210047082000E5
:10092000EB0091310021200066082100C500200065
:1009300067082100C600200068082100C7002100C8
:100940004508B3004608B4004708B5000800210078
:1009500036082000B400210037082000B50021002F
:1009600038082000B600210033082000B100210023
:1009700034082000B200210035082000B3008A317D
:10098000EC228331200031082100C200200032080F
:100990002100C300200033082100C4004208A30046
:1009A0004308A4004408A5008E3188268331210025
:1009B0002308BF002408C0002508C1003F0820000C
:1009C000C100210040082000C20021004108200091
:1009D000C3009D31E5258331200041082100C50079
:1009E000200042082100C600200043082100C70063
:1009F00033082000A100210034082000A2002100BB
:100A000035082000A3000030A4000030A50000300D
:100A1000A6009231D122833103182F2D10302000EF
:100A2000E600C930E7003F30E8002100450820001B
:100A3000E900210046082000EA00210047082000C4
:100A4000EB00913100218331200066082100C500B0
:100A5000200067082100C600200068084E2D1030D5
:100A60002000D900C930DA003F30DB002100450802
:100A70002000DC00210046082000DD00210047089E
:100A80002000DE008C314924200059082100C500D7
:100A900020005A082100C60020005B082100C70082
:100AA0004508B3004608B4004708B5000800230015
:100AB000E001DB010030DA000030D9000030D8005E
:100AC0000030D7000030DF000030DE000030DD00F5
:100AD0000030DC0090311F2085318B170B1724006C
:100AE0008E160B302100D9002630D8005D30890BDE
:100AF000772DD80B772DD90B772D00329D317F259F
:100B0000853188312E2085319631272685319F31D8
:100B10002A2785319D31EE25853122000E170630BA
:100B20002100D9001330D800AD30890B952DD80B9A
:100B3000952DD90B952D003222000E1391311E21D7
:100B4000853100302000A4000030A3000330A20053
:100B5000E830A10023005F082000A80023005E0801
:100B60002000A70023005D082000A60023005C08E9
:100B70002000A5009431BC248531200021082100EB
:100B8000D8005808BA0080316F208531210026082E
:100B9000BB002708BC002808BD002300600887317F
:100BA0001F2785319F319A27853120008E1A292EE3
:100BB0009031002085312100D80058082300E00042
:100BC00022000E1706302100D9001330D800AD30B6
:100BD000890BE82DD80BE82DD90BE82D0032220027
:100BE0000E1391311E21853100302000A400003009
:100BF000A3000330A200E830A10023005F0820001A
:100C0000A80023005E082000A70023005D08200044
:100C1000A60023005C082000A5009431BC24853187
:100C2000200021082100D8005808BA0080316F2028
:100C3000853121002608BB002708BC002808BD001C
:100C40002300600887311F2785319F319A2785311E
:100C5000312E89312B2185312100D80058082300FD
:100C6000E000230060085B0603193A2E023060069C
:100C7000031D522E2200650823005A02031D502E28
:100C80002200640823005902031D502E220063082D
:100C900023005802031D502E220062082300570231
:100CA000031CAD2E91311E21853100302000A4009F
:100CB0000030A3000330A200E830A10023005F0849
:100CC0002000A80023005E082000A70023005D0884
:100CD0002000A60023005C082000A5009431BC245D
:100CE0008531200021082100D8005808BA00803141
:100CF0006F20853121002608BB002708BC0028088A
:100D0000BD002300600887311F2785319F319A2756
:100D1000853100302300DA000030D9000030D800DF
:100D20000030D7000030DF000030DE000030DD0092
:100D30000030DC006003031DAD2E5B08031DAD2EEB
:100D400022000E1782302100D800DD30890BA62E3C
:100D5000D80BA62E003222000E1323006003031DC1
:100D6000072F5F08031DBD2E5E08031DBD2E6030DA
:100D70005C02EA305D3B031CFE2E91311E21853161
:100D800000302000A4000030A3000330A200E830AF
:100D9000A10023005F082000A80023005E082000B7
:100DA000A70023005D082000A60023005C082000A7
:100DB000A5009431BC248531200021082100D800F1
:100DC0005808BA0080316F20853121002608BB0009
:100DD0002708BC002808BD002300600887311F27B2
:100DE00085319F319A27853100302300DA000030A9
:100DF000D9000030D8000030D700072FF430DC07CE
:100E00000130DD3D0030DE3D0030DF3D0F2F003092
:100E1000DF000030DE000030DD000030DC00600864
:100E20002100D80058082300DB00F430D707013038
:100E3000D83D0030D93D0030DA3D6300D52D21008A
:100E4000C6003B082000E60021003C082000E70027
:100E500021003D082000E8008A314D228731200022
:100E600067082100CA00200066082100C9003B086D
:100E70002000CC0021003C082000CD0021003D08CE
:100E80002000CE000030C9002030CA004130CB0025
:100E90008B319523873120004908E6004A08E70096
:100EA0004B08E8008A314D22873120006708210075
:100EB000C800200066082100C700C60EF030C60535
:100EC0009E31DE2687312100BE003E08C500450860
:100ED000BE003E08C6044608BE003E08C0003A08F0
:100EE000BE003E08C1004908BE003E08C2004A08D4
:100EF0002000A200210049082000A1009E316C269C
:100F00008731200022082100CA002000210821008A
:100F1000C90048082000A200210047082000A100C5
:100F20009E316C268731200022082100C800200055
:100F300021082100C7000A30BE003E082000A100A1
:100F4000210049089E31F0268731FF3A013E2100F9
:100F50004707BF003F08C30093314A238731200071
:100F60004108CC004208CD004308CE000030C90043
:100F70002030CA004130CB008B31952387312000CF
:100F80004908E6004A08E7004B08E8008A314D228C
:100F90008731200067082100CA0020006608210070
:100FA000C9004908BE003E08C400C0309E317B26FF
:100FB000873120008E19D92F97318627080020000D
:100FC000A800A901240829020318080029082807F5
:100FD000A50025088600870101089D318F258731EE
:100FE0002000A60029082307A700270886008701FC
:100FF000260881000130A5002508A907E22F053445
:1010020008002000A8002508A7002408A600A6358D
:10101200A70D28088600013087002608C03F270850
:10102200C13F280886000130870001308104413128
:10103200003081042308A6002808023E8600013001
:101042008700260881002808033E860001308700B9
:101052002108C03F2208C13F080002302000AF0033
:101062000430AE00BA30890B3428AE0B3428AF0BF3
:10107200342800009D317B25883126302000AE00C7
:101082002E08A30006309F3140278831053020000A
:10109200AE002E08A30011309F3140278831023064
:1010A2002000AE002E08A30005309F314027883172
:1010B20039302000A9009830AA000530AE002E0871
:1010C200AB000A309031A920883139302000A900C4
:1010D2009830AA000530AE002E08AB0010309031D7
:1010E200A92088312000A301A30A02309F314027A2
:1010F2008831703091313D2188312000A301A30A4B
:1011020001309F3140278831F1302000AE002E0897
:10111200A30004309F31402788310E302000AE00FA
:101122002E08A30000309F3140278831063020006E
:10113200AE002E08A3001D309F31402788312000C9
:10114200A301A30A1C309F31402722000E11080080
:101152002000AB01A41FBA28A109A209A309A4096E
:10116200A10A0319A20A0319A30A0319A40AAB01CB
:10117200AB0AA81FCB28A509A609A709A809A50A91
:101182000319A60A0319A70A0319A80A0130A9001C
:101192002908AB060030AF000030AE000030AD00D1
:1011A2000030AC002408230422042104031914296A
:1011B200AA01AA0AA41BE9280130A135A20DA30D98
:1011C200A40D890BDE280130A9002908AA07DB2813
:1011D2000130AC35AD0DAE0DAF0D890BEA282408F8
:1011E2002802031DFE2823082702031DFE282208C9
:1011F2002602031DFE2821082502031C09292108B5
:10120200A5022208A63B2308A73B2408A83B2C14CE
:101212000130A436A30CA20CA10C890B0A290130BF
:10122200AA02031DE9282B0803192229AC09AD09DA
:10123200AE09AF09AC0A0319AD0A0319AE0A0319C4
:10124200AF0A2F08A4002E08A3002D08A2002C0824
:10125200A10008009D316D258931003A031D342912
:101262009F312A2789318931B121893121004908E9
:10127200D7004808D600D71F432900309D31C42526
:101282000230080001309D31C425893122005808FE
:10129200031D5929210057082200BD0021005608CC
:1012A2002200BC002100E1012200D801D80AAE29A7
:1012B20021006108031D82295609D3005709D40071
:1012C200D30A0319D40A22003C0821005307200044
:1012D200A10022003D082100543D2000A2009E31C1
:1012E2006C26893120002208803A803C031D7C292B
:1012F200210821006702031882292100E101E10A85
:10130200AE2921006103031DAE295609D3005709F6
:10131200D400D30A0319D40A22003C08210053073F
:101322002000A10022003D082100543D2000A2001F
:101332009E316C26893120002208803A2100D50096
:1013420080305502031DA8296608200021020318D7
:10135200AE292100E10161080800210061080800AE
:10136200CA3097310F278931013A031D472A2100DC
:101372004F082000AA0021004E082000A900913148
:101382005D218931200029082100B30020002A08AC
:101392002100B40020002B082100B5004D082000D8
:1013A200AA0021004C082000A90091315D21893159
:1013B200200029082100B60020002A082100B700D9
:1013C20020002B082100B80083313C238931210001
:1013D2003308D0003408D1003508D2000030200094
:1013E200D9003430DA004330DB00F630B100483047
:1013F200B2004030B3000030C9003430CA0043307C
:10140200CB00210050082000CC0021005108200010
:10141200CD00210052082000CE008B319523893166
:1014220020004908B4004A08B5004B08B6008A31CA
:10143200EC22893120003108DC003208DD0033085B
:10144200DE008C3149248931200059082100D00066
:1014520020005A082100D10020005B082100D200A0
:1014620050082000E600210051082000E70021007A
:1014720052082000E8008A314D222000670821002E
:10148200C900200066082100C8000800FF302100C2
:10149200C800FF30C900080020006608EA0067089B
:1014A200EB006808EC0003106B0D6C0DED006D088D
:1014B2002100A5002508031D682A00302000E9004C
:1014C2000030E8000030E7000030E60008002000AD
:1014D2006608EA006708EB006808EC001730EC3693
:1014E200EB0CEA0C890B702A6A08ED006D082100EA
:1014F200A0002000E717FF30E605FF30E7050030C7
:10150200E80566082100A100200067082100A2006A
:10151200200068082100A300A4018E30A502A51FA7
:10152200B22A2508803A8F3E0318A12A00302000F3
:10153200E9000030E8000030E7000030E600080073
:1015420001302100A436A30CA20CA10C890BA22A03
:1015520001302000EA006A082100A5070319CE2AFB
:10156200A12A18302502031CCA2A00302000E900F3
:101572000030E8000030E7000030E60008000130EB
:101582002100A135A20DA30DA40D890BC12A0130A2
:10159200A50221002508031DC02A20080319DC2A00
:1015A200A109A209A309A409A10A0319A20A0319FC
:1015B200A30A0319A40A24082000E9002100230831
:1015C2002000E800210022082000E7002100210875
:1015D2002000E600080020003408B7003508B800F3
:1015E2003608B9000310380D390DBA003A08BF00A9
:1015F2003F08031D032B0030B1000030B200003061
:10160200B30008003108B7003208B8003308B90047
:101612000310380D390DBA003A08C0004008031D06
:10162200192B0030B1000030B2000030B3000800C6
:101632000030BC000030BD000030BE0089304007E1
:10164200B7003708BF023408B7003508B8003608BB
:10165200B9001030B936B80CB70C890B2B2B3708F0
:10166200BA003A08C0003108B7003208B80033089F
:10167200B9001030B936B80CB70C890B3B2B3708C0
:10168200BA003A08C0068030B7003708C005B5175F
:10169200FF30B405FF30B5050030B605B217FF3094
:1016A200B105FF30B2050030B3051830B700370876
:1016B200BB000130BC35BD0DBE0D890B5B2B330861
:1016C2003602031D6A2B32083502031D6A2B3108CC
:1016D2003402031C732B3108B4023208B53B3308C1
:1016E200B63B3C140130B435B50DB60D890B742BE5
:1016F2000130BB02031D5A2B3C08A1003D08A20089
:101702003E08A3003F08B7003708A4004008B8000D
:101712003808A5009531C22520002108B100220811
:10172200B2002308B300080020004908CF004A088D
:10173200D0004B08D1000310500D510DD2005208B9
:10174200D3005308031DAC2B0030C9000030CA007F
:101752000030CB0008004C08CF004D08D0004E08E6
:10176200D1000310500D510DD2005208D800580874
:10177200031DC22B0030C9000030CA000030CB006C
:10178200080058087B3ECF004F08D3074908CF0016
:101792004A08D0004B08D1001030D136D00CCF0C03
:1017A200890BCE2B4F08D2005208D8004C08CF002C
:1017B2004D08D0004E08D1001030D136D00CCF0CDD
:1017C200890BDE2B4F08D2005208D8068030CF009A
:1017D2004F08D805CA17CD17FF30CC05FF30CD050D
:1017E2000030CE050030D4000030D5000030D600E5
:1017F2000730CF004F08D700491C052C4C08D407EE
:101802004D08D53D4E08D63D0130CB36CA0CC90C29
:10181200890B062C0130CC35CD0DCE0D890B0C2C4D
:101822000130D702031DFD2B0930CF004F08D7002E
:10183200491C212C4C08D4074D08D53D4E08D63DF5
:101842000130CB36CA0CC90C890B222C0130D6369A
:10185200D50CD40C890B282C0130D702031D192C6E
:101862005408A1005508A2005608A3005308CF004F
:101872004F08A4005808D0005008A5009531C22591
:1018820020002108C9002208CA002308CB00080052
:1018920020005908DF005A08E0005B08E10003104D
:1018A200600D610DE2006208E5005C08DF005D0882
:1018B200E0005E08E1000310600D610DE2006208C5
:1018C200E40065080319712C640865020318782C7A
:1018D2006503FF3A6407DF0019305F02031C782CAE
:1018E2005C08D9005D08DA005E08DB0008006408C5
:1018F20003190800650864020318872C6403FF3A81
:101902006507DF0019305F02031808000630DF00A8
:101912005F08E300DB1BE317DE1B6317DA17FF30F8
:10192200D905FF30DA050030DB05DD17FF30DC05B5
:10193200FF30DD050030DE05640865020318C32CA4
:101942000130DC35DD0DDE0D890BA22C0130E40205
:10195200640865060319BE2C0130E30263080739E7
:101962000319BE2CA12C0130DB36DA0CD90C890B01
:10197200B52C0130DF005F08E5076508640603192E
:10198200E82CB42C650864020318E82C0130D93520
:10199200DA0DDB0D890BC82C0130E50264086506FF
:1019A2000319E42C0130E302630807390319E42C1C
:1019B200C72C0130DE36DD0CDC0C890BDB2C013050
:1019C200DF005F08E40765086406031DDA2CE31FE5
:1019D200FA2CFF30D906FF30DA06FF30DB06013081
:1019E200D907003003180130DA070030031801303C
:1019F200DB07631F0C2DFF30DC06FF30DD06FF30F6
:101A0200DE060130DC07003003180130DD0700304C
:101A120003180130DE07E3015908DC075A08DD3DEF
:101A22005B08DE3DDE1F272DFF30DC06FF30DD06C2
:101A3200FF30DE060130DC07003003180130DD071D
:101A4200003003180130DE07E301E30A5C08A1005D
:101A52005D08A2005E08A3006508DF005F08A4001D
:101A62006308E0006008A5009531C2252000210826
:101A7200D9002208DA002308DB0008002000141035
:101A820024009D1F7D2E9D13F9017708023E8600DA
:101A920001308700403FF300413FF40073088600A5
:101AA2007408870001308100F70108002100DC186A
:101AB20008005B08F3007308F7005B08860001303A
:101AC20087000108F3007308E5005B088600013017
:101AD20087000130413FF8000430F3007308DB0750
:101AE2005B08623A031D792D5E30F3007308DB0058
:101AF2005C105B085A060319DC1424001E14023021
:101B0200F3007308F900080024009E140230F30069
:101B12007308F900080024001E1F982D0130F300FD
:101B220073082100DE07043090318C2008007B0806
:101B3200F4007A08F300F436F30C730824009900D9
:101B42007A1CA82D0B30F3007308F900080003304B
:101B5200F3007308F900080024001E1FB92D01309C
:101B6200F30073082100DE07043090318C20080056
:101B72009E147B08F4007A08F3007408F300F40161
:101B820006307305F50000307405F600F030750478
:101B9200FA0000307604FB007A142100E301E30A24
:101BA2000230F3007308F9000800210063030319EF
:101BB200F22D7808860001308700403FFA00413F4D
:101BC200FB007808033E860001308700403FDF00BB
:101BD200413FE00078088600013087000130423F33
:101BE200E4007A08240099007A1CFC2D0530F300E9
:101BF2007308F90008000330F3007308F9000800C5
:101C020024001E1F0F2E0130F30073082100DE078F
:101C120024001E13053090318C2008000130210071
:101C2200E402640A031D282E0530F3007308F80746
:101C32000130E502031D212E003090318C20080076
:101C420024009E140230F3007308F90008002100FA
:101C52005F088600600887000108240099000130AF
:101C62002100DF070030E03D080024001E1F442E43
:101C72000130F30073082100DE07043090318C201C
:101C820024001E1308009E150830F3007308F900A3
:101C920008000830F3007308F90024009E150800BC
:101CA20021005F088600600887002400190881006F
:101CB20001302100DF070030E03D0130E40203196A
:101CC200692E24009E120630F3007308F9006D2E6F
:101CD20024009E169E31AA2624001E1608000030FB
:101CE20090318C2008000130F30073082100DE07D8
:101CF200063090318C200800790884000C300402F0
:101D02000318742E98310435003E82000800210029
:101D120023082000C400210024082000C50021005F
:101D220025082000C6009131C5218E3120004408CB
:101D32002100B000200045082100B1002000460823
:101D42002100B200320831043004031DAF2E0030EE
:101D5200A3000030A4000030A500080000302000DD
:101D6200A1008030A2003F30A300210030082000F3
:101D7200A400210031082000A50021003208200023
:101D8200A6009231D1228E310318C92E0130CA2EFB
:101D920000302000ED006D082100AC002C08031972
:101DA200F22E30082000B100210031082000B200DC
:101DB200210032082000B3000030B4008030B500AA
:101DC2003F30B6008A31EC228E31200031082100EA
:101DD200B000200032082100B100200033082100A9
:101DE200B20030082000C900210031082000CA00DA
:101DF200210032082000CB00210030082000CC0056
:101E0200210031082000CD00210032082000CE0040
:101E12008B3195238E31200049082100AD0020002E
:101E22004A082100AE0020004B082100AF002D0817
:101E32002000E60021002E082000E70021002F08E4
:101E42002000E8002A30E9009830EA000430EB0074
:101E52000030EC0096319B268E312000660821006E
:101E6200A600200067082100A700200068082100C2
:101E7200A8002D082000E60021002E082000E7001F
:101E820021002F082000E8001830E9009830EA000D
:101E92000530EB000030EC0096319B268E3120009D
:101EA20066082100A900200067082100AA0020007E
:101EB20068082100AB0029082000B40021002A088C
:101EC2002000B50021002B082000B60021002608C2
:101ED2002000B100210027082000B20021002808BC
:101EE2002000B3008A31EC228E3120003108C90073
:101EF2003208CA003308CB00210030082000CC0091
:101F0200210031082000CD00210032082000CE003F
:101F12008B3195238E31200049082100B00020002A
:101F22004A082100B10020004B082100B2002C0811
:101F32000319C72F10302000D900C930DA003F3012
:101F4200DB00210030082000C10021003108200000
:101F5200C200210032082000C3009D31E5258E31E8
:101F620020004108DC004208DD004308DE008C311D
:101F720049248E31200059082100B00020005A085F
:101F82002100B10020005B082100B20023082000DC
:101F9200A100210024082000A20021002508200021
:101FA200A3000030A4000030A5000030A60092314A
:101FB200D1228E31031CE52F21003008A300310805
:101FC200A4003208A5000800210030082000C1004A
:101FD200210031082000C200210032082000C30085
:101FE2009D31E525200041082100A3002000420880
:101FF2002100A400200043082100A50008002200BF
:10200200D801003008005E302000A1002108210024
:10201200DB005E302000A10021082100DA00DC1480
:102022005C10DE0124009C0128309D009F010330DA
:102032009A002000141021001414080092313A2250
:1020420090319D31A72590319D31772590319D3179
:10205200AE2590319031042090319D31732590311D
:102062009D31CC2590319D31D42590319F318327EC
:1020720008002000A80125082802031808002408E7
:10208200A7002308A60028082607840027080318AB
:10209200270A850000089D318F25903101302000EC
:1020A200A6002608A8073C282000B000E1309E3197
:1020B2009A26903120003008A9000030AA002E088C
:1020C200AF002F08AB00A0309031A9209031220040
:1020D2000E150A30890B6B2822000E110800200011
:1020E200A501A601211C79282308A5072408A63DDD
:1020F2000130A335A40D890B7A280130A236A10C38
:10210200890B7F2821082204031D73282608A200B8
:102112002508A1000800F20024001E157708023EDF
:10212200860001308700160001040319A7287708EA
:10213200023E860001308700403FF000413FF1003F
:10214200700886007108870072088100F901080092
:102152002000AD0022008E1020002D0820389D3175
:102162008F25903120002A08A4002908A3002B08FB
:10217200AC002C08A50090313A20903122008E1438
:102182000630890BC228003208002000A700073061
:102192009F31E62790312000A6002608A8000E30C5
:1021A200A6002608A8050E302806031DDA280030EE
:1021B20008002836A6002708860087012608810025
:1021C200013008002000AE0022008E1020002E08F0
:1021D2009D318F25903120002A08AC002C08A300E5
:1021E2002B08AD002D08A4002A088731DF27903183
:1021F20022008E140630890BFC28003208002000D1
:10220200680867046604031908298030E80669082B
:10221200D9006A08DA006B08DB006608DC00670890
:10222200DD006808DE008C31492420005908E600F0
:102232005A08E7005B08E800080030302000AF00D1
:102242002F08AA00AB01AB0A00309031E320913194
:102252002000B0143008AF002F08A30000309F31D7
:102262004027913106302000AF003030890B3729EA
:10227200AF0B3729000008002000A6000630890BAA
:102282004029003222008E100630890B4629003286
:1022920020002608A5002508A30007309F3140270B
:1022A20091310630890B5329003222008E140630F8
:1022B200890B5929003208002000AE01AA1F6829A3
:1022C200A909AA09A90A0319AA0AAE01AE0A29088C
:1022D200A1002A08A200A3018E30AC002C08A400A1
:1022E2002E08AD002D08A5009531C2252000210839
:1022F200A9002208AA002308AB0008002000A700BA
:102302002408A6002308A500A535A60D27088600E7
:10231200013087002508C03F2608C13F2208A500DA
:102322002708023E86000130870025088100270821
:10233200033E8600013087002108C03F0030C13FC4
:1023420008002000A200A30122082300910020001F
:1023520021082300930095131513151500308B1BCC
:1023620001302000A3008B13553023009600AA30C1
:10237200960095149518BB2915112000230C031CF7
:102382008B1303188B17080020004408A10045088E
:10239200A2004608A3000030A4000030A5000030CF
:1023A200A6009231D122913103180800200044087E
:1023B200C1004508C2004608C3009D31E525200042
:1023C2004108C4004208C5004308C60008002100B5
:1023D2005C18092A20002A08A2002908A1002B085B
:1023E200AF002F08A3002D08A5002C08A400D230AE
:1023F200883102209131D2302000AF002F08A10095
:102402002E08B0003008A200013095310F250800D7
:1024120020002E08860087018101810A0800200021
:10242200AE0021005C18332A20002E08AC002C08D4
:10243200A1002808AD002D08A2002A08A40029083E
:10244200A300593091317F21923159302000AC00E4
:102452002C08A1002B08AD002D08A20001309531F7
:102462000F25080020002B08860087018101810AC0
:10247200080022008C018D018E013F3021008C006A
:10248200B0308D0039308E00013023008E008D0176
:1024920003308C00103024008D003B308C00D13092
:1024A2008E00210095132A3022009E009D012700F4
:1024B20013111211111502302000A1000030A200E8
:1024C2009D31F7258B15080000302000AC0000304C
:1024D200AB000030AA000030A900211C782A250890
:1024E200A9072608AA3D2708AB3D2808AC3D0130C4
:1024F200A535A60DA70DA80D890B792A0130A436A2
:10250200A30CA20CA10C890B802A24082304220408
:102512002104031D6E2A2C08A4002B08A3002A08FC
:10252200A2002908A10008002000B500B801300867
:10253200B1003108B6002F08860087010108B100FA
:102542003108B7000230B1003108A8003508B200E6
:10255200B3013208A9003308AA003830B4003408A5
:10256200AB003630923110229231C8302000A100E7
:102572000030A2009E31BB26923102302000380684
:10258200031DC92A94311F249231003A0319BE2A2D
:1025920020003808031DCF2A01300800003008004F
:1025A2002000A31FE82A2109A7002209A800230965
:1025B200A900A70A0319A80A0319A90A00302707C4
:1025C200A1000030283DA2008030293DA300A61FB3
:1025D200FE2A2409A7002509A8002609A900A70A9E
:1025E2000319A80A0319A90A00302707A40000301A
:1025F200283DA5008030293DA6008030A30680300A
:10260200A60626082302031D080025082202031D30
:1026120008002408210208002000B0018E30AD001D
:102622002D08AF00AC1F222BA909AA09AB09AC09DE
:10263200A90A0319AA0A0319AB0A0319AC0AB001C1
:10264200B00AFF302C050319322B0130AC36AB0C2B
:10265200AA0CA90C890B272B0130AD002D08AF075E
:10266200222B2908A1002A08A2002B08A3002F0868
:10267200AD002D08A4003008AE002E08A50095314B
:10268200C22520002108A9002208AA002308AB00C5
:1026920008009D31842593319D3195259331003A6F
:1026A20003194D2B1F309E318A2693319D3170259F
:1026B20093319D31B5259331003A03195A2B9D313F
:1026C2007F2593319E310926933120002208C800CC
:1026D2002108C7004808AA004708A9009F3115270A
:1026E200933120002908B1002A08B2002B08B30058
:1026F2001230B4008330B5004430B6008A31EC2287
:1027020020003108C4003208C5003308C60044085E
:10271200C1004508C2004608C30008002000CA00E4
:102722004C30BC000030BD004308C7004708BE0063
:102732000130BF000030C0004A089E31CC269331E0
:10274200003A0319D32B01302000C700450AAA2BF7
:10275200C735890BA92B4708FF3EC8004503FF3A3E
:102762004407013E890AB62BC835890BB52B4808A8
:10277200C9004908CB004B08C7004708CC054503F0
:10278200FF3A4407013E890AC82B0310CC0CFF3ED6
:10279200031DC62B4C08C700460886008701470860
:1027A20081000800003008002000A70000309E31A0
:1027B200352693312000A5002508A6002603031D17
:1027C200F82B01309E31352693312000A5002708D1
:1027D200860087012508810002309E3135262000BF
:1027E200A5002408860087012508810008000F3013
:1027F200A5002508A10001309131A22193310530B5
:102802002000A5002508A10002309131A2219331B8
:102812002000A101A10A00309131A2210F30200035
:10282200A500270886008701250881000530A5003C
:102832002408860087012508810008002200240858
:102842002000A100220025082000A2002200260864
:102852002000A300220027082000A4002200200953
:102862002000A500220021092000A6002200220942
:102872002000A700220023092000A800A50A0319AE
:10288200A60A0319A70A0319A80A2508A1072608F8
:10289200A23D2708A33D2808A43D22003A082000B3
:1028A200A90022003B082000AA00AB01AC012408C9
:1028B2002C02031D662C23082B02031D662C220802
:1028C2002A02031D662C2108290203186A2C0130F2
:1028D2000800003008002000CA004C30BC00003064
:1028E200BD004308C7004708BE000130BF000030EA
:1028F200C0004A089E31CC269431003A03190800E0
:1029020001302000C700450A872CC735890B862C69
:102912004708FF3EC8004503FF3A4407013E890AC3
:10292200932CC835890B922C4808C9004908CB0062
:102932004503FF3A4407013E890AA12C0310C60D44
:10294200FF3E031D9F2C4B08C7004708C6054B09D5
:10295200C7004708CC054608C7004708CC044C30DE
:10296200C7004708B9004308C8004808BA004A0827
:102972009E315026080000302000AD000030AC002F
:102982000030AB000030AA002408230422042104F2
:102992000319062DAE01AE0AA41BDB2C0130A135B2
:1029A200A20DA30DA40D890BD02C0130A90029087A
:1029B200AE07CD2C0130AA35AB0DAC0DAD0D890B98
:1029C200DC2C24082802031DF02C23082702031DF7
:1029D200F02C22082602031DF02C21082502031CDC
:1029E200FB2C2108A5022208A63B2308A73B2408AA
:1029F200A83B2A140130A436A30CA20CA10C890B0B
:102A0200FC2C0130AE02031DDB2C2D08A4002C0887
:102A1200A3002B08A2002A08A10008002000A4009D
:102A220021005C18512D02302000A30022088600EC
:102A32008701230881002108A30021005A0A860089
:102A4200013087002000230881002408A300210010
:102A52005A088600013087002000230881002100E7
:102A62005A08023E86000130870020002208C03F3B
:102A72000030C13F0430A30023082100DA075A08BE
:102A8200623A031D4A2D5E302000A3002308210074
:102A9200DA00DC105B085A06031D572D5C14572D13
:102AA20020002208860087018101810A2000220875
:102AB2008600870102300106031D080014147908FC
:102AC200031908005F2D2000BA00BB01A801A80A63
:102AD2003A08B600B7013608A9003708AA003B3009
:102AE200B8003808AB003330923110229531C8302B
:102AF2002000A1000030A2009E31BB269531023099
:102B020020003B06031D8B2D94311F249531003A82
:102B12000319802D20003B080319912D0030080075
:102B22003208AA003108A9003408B6003608AB0002
:102B32003A08B700B8013708AC003808AD003B309E
:102B4200B9003908AE009131E8219531C830200032
:102B5200A1000030A2009E31BB2695310230200038
:102B62003B06031DBA2D94311F249531003A0319F7
:102B7200AF2D20003B08031DC02D0130080000309E
:102B82000800200024080319CB2D23082204210465
:102B9200031DDC2D0030A1000030A2000030A30094
:102BA20008000130A6002608A4070130A336A20CB3
:102BB200A10C890BD72DFE3023050319F52DD22D3B
:102BC2000130A6002608A4070130A107003003182F
:102BD2000130A207003003180130A3070130A336E9
:102BE200A20CA10C890BF02DFF3023050319022E34
:102BF200E12D0130A4020130A135A20DA30D890BF4
:102C0200FD2DA21B082E023024020318FA2D2418CF
:102C1200102EFF30A1057F30A205FF30A30503105F
:102C2200A40C2408A600A701A8011030A635A70D00
:102C3200A80D890B172E2608A1042708A20428082C
:102C4200A304250803190800A31708004030200038
:102C5200BC003C08BF003F30BC003C08AF00F43071
:102C6200BD003D08B0007630923195229631003A8F
:102C7200031D3F2E00309D31BC250800E0302000AE
:102C8200BC003C08BF00AA30B1000130B20088305D
:102C9200BC003C08B3001830B4000030B5007630F8
:102CA200953164259631003A031D5B2E00309D312B
:102CB200BC25080023002B082000BC00BD013C08F5
:102CC200BD00BC0123002A0820003C072200D600D8
:102CD20020003D0803183D0A2200D70023002D08DA
:102CE2002000BC00BD013C08BD00BC0123002C0833
:102CF20020003C072200D40020003D0803183D0AB2
:102D02002200D50023002F082000BC00BD013C0892
:102D1200BD00BC0123002E0820003C072200D20087
:102D220020003D0803183D0A2200D30001309D31E6
:102D3200BC25080020006C08A2006B08A10003302B
:102D4200A3000030A4009031702096312000690861
:102D5200210784006A08223D8500003F2100A0006F
:102D6200013FA100023FA20020006B086C0403197E
:102D7200022FFF302000EB07FF30EC3D6C08A20071
:102D82006B08A1000330A3000030A4009031702032
:102D9200963120006908210784006A08223D8500D7
:102DA200003FD900013FDA00023FDB00210020088A
:102DB2002000C900210021082000CA0021002208A9
:102DC2002000CB006608CC006708CD006808CE0062
:102DD2008B319523963120004908DC004A08DD003A
:102DE2004B08DE008C31492496312000590821001D
:102DF200A00020005A082100A10020005B08210049
:102E0200B42E210020082000E60021002108200025
:102E1200E700210022082000E80008002000D1007D
:102E22009E315E26973127302000CE00F530890B87
:102E3200182FCE0B182F09302000CE004E08C300E9
:102E4200C401C501C50A5330CF004F08C6001E3069
:102E520093318F2397312000D0005008D2005308BD
:102E6200031952030319142F5208031D3A2F00307D
:102E72000800CC30BC000130BD000330CE004E084B
:102E8200BE000630BF000030C0001E309E31CC268E
:102E92009731013A031D842F2000D401D501550832
:102EA200803ACE0080304E02031D592F0330540267
:102EB2000318822F20005435CC3E84000130850057
:102EC2000008CE000314540DCC3E8400013085006E
:102ED20054355107CF004F08860087010008C03FD4
:102EE2004E08C13F0130D4070030D53D5508803A25
:102EF200CE0080304E02031D802F03305402031C8B
:102F02005B2F01300800003008003B309031C620B2
:102F12009731003A0319F82F04302000B300330828
:102F2200AF0037309F31022797312000371CA22F84
:102F32003808B3003308A700210067089F315627DD
:102F420097312000B71CAF2F210066082000B30084
:102F52003308A70039089F31562797312000371DC3
:102F6200F22F3A08B300B401B501B60136082200C7
:102F7200E500200035082200E40020003408220089
:102F8200E300200033082200E20000302000A40009
:102F92000030A3000330A200E830A100220065083F
:102FA2002000A800220064082000A7002200630875
:102FB2002000A600220062082000A50092316522AE
:102FC2009731200024082200E50020002308220077
:102FD200E400200022082200E30020002108220051
:102FE200E2002000B71DF82F9031002097313B30CE
:102FF2009031C6209731003A03190800862F8D318F
:10300200572D8D31852D8D31D62D8E31012E8E315C
:10301200702E8E31362E8E314A2E8E31702E8E319A
:10302200512E8E31742E8D318C2D8D31AD2D3C343F
:10303200043442349F346A3442349034013442348A
:103042004D34BB344034EC3447343E348E341F3478
:10305200BB343C34043442345A348B344234043466
:10306200443442349C344F344134003480343F344D
:0A307200313430343034303431345E
:103AD40022006608080022006708080021009D14DF
:103AE400080001302200970008001A3021009700D6
:103AF400080022000E118E14080021001D1022005F
:103B04009713080021001D142200971708002700AE
:103B1400131D08009E31282608002000A200220858
:103B24009E311C2608002200170E890C890C0139CD
:103B34000800640080010131890B9C2D0034C034DD
:103B4400D43401340034013401347230210099003A
:103B5400980122009601080040302400940020308F
:103B6400950092010800031021009D1C03140030ED
:103B7400093D08002000A2002208A100210822001B
:103B8400E60008002000A2002208A100210822006B
:103B9400E7000800013021009D0090309E009B0149
:103BA4009C010800443020009B009A01911046308B
:103BB4009C000800200011107D0897007C089600E6
:103BC4009E314226080020004308420441040319A0
:103BD40008008030C3060800E6302000A80028084A
:103BE400A400E7309331D5230800200022082200E6
:103BF400EB00200021082200EA000800200022082F
:103C04002200E900200021082200E8000800210029
:103C14001C082000A20021001B082000A1000800AD
:103C2400F4302200A4070130A53D0030A63D003049
:103C3400A73D08002000A1002400951320002108BE
:103C440024009100141C242E1108080022006A0884
:103C54006B040319322E6B088A006A080A009E312D
:103C64002700131108002000A1002108230091005F
:103C74001513951315140000000023001308080001
:103C84009E3112269E312200680869040319080037
:103C940069088A0068080A009E3108002000BD00F7
:103CA4003908BB003B08AF003A08BC003C08B00030
:103CB4003D0892319522080002302000CD004D08C5
:103CC400C300C401C40AC501C50AC6011E3094312B
:103CD4006C2408002000A21F08002109A300220967
:103CE400A400A30A0319A40A2308A1002408A2001B
:103CF40008002000B200703091313D219E31053022
:103D04002000B1003108AE0032089031552008007F
:103D14002000A2002208A100A10DA10D21001D0870
:103D2400200021068339210621009D001D1408006E
:103D34002000A30022008E10200023089D318F252F
:103D44009E3122008E140630890BA62E0032080004
:103D54000530F0007008F80701302100E502031D6A
:103D6400B82E0430F0007008F9000800F901F90ACF
:103D74000800200022082200BB00200021082200A5
:103D8400BA002708A3002608A2002508A1002408D9
:103D9400A00008002000C2003D08B2003C08B100A9
:103DA4003E08C1004108B3004008B5003F08B40014
:103DB40042089531642508002000A201220067080A
:103DC4002000A1002108A2040310A20D220066080D
:103DD4002000A1002108A204220808002000A40059
:103DE400A301241CF92E2108A2002208A307031012
:103DF400A10D0310A40C2408031DF32E23080800AE
:103E04002000B20022000E1120003208B000300859
:103E1400AA002F08B1003108AB0061309031E320D3
:103E240022000E15080020002908A1002A08A2007B
:103E3400A3018E30AC002C08A400A5019531C22545
:103E440020002108A9002208AA002308AB000800CA
:103E540070302000C2004208C3004330C200420850
:103E6400B900BA011E309E3150269F3100309F3177
:103E74006C279F3101309F31B22708002000A40035
:103E840022008E102000240820389D318F259F3178
:103E9400200023089D318F259F3122008E14063087
:103EA400890B522F003208002000A9002908A8001D
:103EB40028082100E70020002708A800280821007E
:103EC400E60020002708A8002808A40029089F313C
:103ED400CC2708002000C0004008BE000430BE35D6
:103EE400FF3E031D712F3E35BF003F08C100413026
:103EF400BE003E08B900BA01BA0A1E309E315026EF
:103F0400080020009901F830970096011708FD0079
:103F14001608FC0011102100111403302000A10028
:103F24000030A2009E310026BD3020009800080019
:103F340030302000AF002F08AA00AB01AB0A0030DC
:103F44009031E3209F31FD302000AF002F08B005F1
:103F54003008AF002F08A30000309F31402708002D
:103F64002000C000210062082000BE003E08C100FD
:103F74004130BE003E08B9000230BF003F08BA001D
:103F84001E309E31502620004008BE003E0821000D
:103F9400E20008002000A6002608A5002508A100CC
:103FA40001309131A2219F3120002408A500250869
:103FB400A10002309131A2219F312000A101A10A68
:103FC40000309131A22108002000A40022008E10AC
:103FD400200024089D318F259F3100309D318F258D
:103FE4009F312000A3002308A50022008E14063070
:0C3FF400890BFA2F00322000250808007D
:020000040001F9
:04000E00F4FFFFFEFE
:00000001FF
