:1000000080313728080008007E14803120007F08E6
:10001000A0000B1F15282100941C15282000941CFB
:10002000152893316523803132280B1F21282100A8
:10003000141C21282000141C2128853139258031E9
:1000400032280B1F2D282100111C2D282000111CE7
:100050002D289331D123803132288B190B1C322863
:100060009331922320002008FF007E100900803188
:1000700039282100933170238031E30093317123BB
:100080008031E400933172238031E5002200933106
:100090007F238031EA00933180238031EB0093315C
:1000A00081238031EC00933182238031ED00F70110
:1000B000F801F901FA01FB01C93084000030850024
:1000C0001A308731FA2780312030840001308500D2
:1000D00046308731FA278031A03084000130850016
:1000E0002C308731FA277E1020008331462B2100E7
:1000F000B9014130A9002908B90093316723803143
:10010000003A031D86288B31D1238031B93021007C
:10011000A90029082000AF00F4302100AA002A0815
:100120002000B0007630883146208031F330210045
:10013000A90029082000C30003302100AA002A08D2
:100140002000C400C501C50AB9302100AB002B084E
:100150002000C60076308931042180312100AC00B6
:100160002C08B800390803193803031996283808F1
:10017000031DC52800309331B92300302100A600AB
:100180005C30A700C230A8000800BC302000B100DD
:100190000130B200F7302100A90029082000B30087
:1001A0000830B4000030B50076308A313F2280310B
:1001B000003A031DE62800309331B92300302100B6
:1001C000A6005C30A700C230A80008000030200064
:1001D000A4000030A3000030A2001030A1002300D2
:1001E0004108F0392100A900AA01AB01AC012300AC
:1001F00040082100AD00AE01AF01B0010830AD35BF
:10020000AE0DAF0DB00D890BFF2823003F08210074
:10021000B100B201B301B4011030B135B20DB30D6C
:10022000B40D890B0D293108AD073208AE3D3308F6
:10023000AF3D3408B03D2D08A9072E08AA3D2F0870
:10024000AB3D3008AC3D2C082000A80021002B0855
:100250002000A70021002A082000A600210029086C
:100260002000A50087317827803120002408210054
:10027000D500200023082100D400200022082100FE
:10028000D300200021082100D200220057082000BE
:10029000AA00220056082000A9009631BF2680310E
:1002A00020002908D6002A08D7002B08D8002100F2
:1002B00057082000AA00210056082000A900943108
:1002C000A624803120002908B4002A08B5002B0894
:1002D000B6000030B1008030B2004430B3008D3140
:1002E000D925803120003108C1003208C20033080E
:1002F000C3009331DA23803120004108C90042084D
:10030000CA004308CB000030B1008030B200463054
:10031000B300210055082000AC0021005408200043
:10032000AB00210053082000AA0021005208200041
:10033000A90088318220803120002908B4002A08D1
:10034000B5002B08B6008D31D92580312000310849
:10035000CC003208CD003308CE00863182268031B1
:1003600020004908D9004A08DA004B08DB008E312A
:1003700082268031200056082200B4002000570851
:100380002200B500200058082200B60021005708BE
:100390002000AA00210056082000A9009431A624BC
:1003A000803120002908B4002A08B5002B08B600C7
:1003B0000030B1000030B2004630B3008D31D92595
:1003C000803120003108C1003208C2003308C30068
:1003D0009331DA23803120004108C9004208CA0065
:1003E0004308CB000030B1000030B2004830B30009
:1003F000210055082000AC00210054082000AB006B
:10040000210053082000AA00210052082000A90062
:1004100088318220803120002908B4002A08B500E4
:100420002B08B6008D31D925803120003108CC0051
:100430003208CD003308CE0086318226803120007C
:100440004908D6004A08D7004B08D80021005708B1
:100450002000AA00210056082000A9009431A624FB
:10046000803120002908B4002A08B5002B08B60006
:100470000030B1000030B2004630B3008D31D925D4
:10048000803120003108C1003208C2003308C300A7
:100490009331DA23803120004108C9004208CA00A4
:1004A0004308CB000030B1000030B2004830B30048
:1004B000210055082000AC00210054082000AB00AA
:1004C000210053082000AA00210052082000A900A2
:1004D00088318220803120002908B4002A08B50024
:1004E0002B08B6008D31D925803120003108CC0091
:1004F0003208CD003308CE008631822680312000BC
:100500004908D9004A08DA004B08DB008E31822600
:100510008031200056082100B50020005708210036
:10052000B600200058082100B7002200550820001E
:10053000AA00220054082000A9009631BF2680316D
:1005400020002908D6002A08D7002B08D80021004F
:1005500035082000D900210036082000DA002100EB
:1005600037082000DB008E318226803120005608BB
:100570002200B100200057082200B20020005808D5
:100580002200B30034082000CC00220035082000EF
:10059000CD00220036082000CE00220031082000C5
:1005A000C900220032082000CA00220033082000BF
:1005B000CB0086318226803120004908E6004A08B7
:1005C000E7004B08E8008D313A25803120006908AA
:1005D000AC006808AB006708AA006608A90088316B
:1005E00082208031200029082200AE0020002A0845
:1005F0002200AF0020002B082200B00000302000B5
:10060000B100A030B2004530B30022003108200014
:10061000C900220032082000CA002200330820004E
:10062000CB00220034082000CC0022003508200036
:10063000CD00220036082000CE008631822680318F
:1006400020004908B4004A08B5004B08B6008D31B7
:10065000D9258031200031082200AB00200032086B
:100660002200AC00200033082200AD00013093319D
:10067000B92322002B082100A60022002C0821000B
:10068000A70022002D082100A80008002300D701A0
:10069000CC010030D0000030CF000030CE00003060
:1006A000CD000030D6000030D5000030D40000303E
:1006B000D300D101D20195317E2583318B170B17E1
:1006C00024008E160B302100C8002630C7005D3094
:1006D000890B682BC70B682BC80B682B0032933132
:1006E000832383318C31BF2483318B31D1238331F8
:1006F0000A302000A1000030A20093318D23833105
:1007000080310320833122000E1706302100C800FB
:100710001330C700AD30890B8B2BC70B8B2BC80B4D
:100720008B2B003222000E1396316026833100306D
:100730002000A4000030A3000330A200E830A10094
:10074000230056082000A800230055082000A70019
:10075000230054082000A600230053082000A50011
:10076000893197218331200021082100C7004708E3
:10077000BA0080317720833121002608BB0027088A
:10078000BC002808BD00230057088F31362783316D
:100790009431FE2483318A319D22833120008E1AC8
:1007A000282C22000E1706302100C8001330C70085
:1007B000AD30890BD92BC70BD92BC80BD92B0032E5
:1007C00022000E1396316026833123005309210045
:1007D000C700230054092100C800C70A0319C80A2A
:1007E00088310020833121004708200021072300A1
:1007F000D100210048082000223D2300D200E8302B
:100800002000A1000330A200230052082000A40011
:10081000230051082000A3008831112083312000DB
:1008200021082100C7004708BA00803177208331B2
:1008300021002608BB002708BC002808BD002300B3
:1008400057088F31362783319431FE248331302C81
:100850008B31602383312100C70047082300D70074
:10086000230057084C060319A12C02305706031920
:10087000A12C96316026833123005703031D432C9E
:100880002100BA01722C53092100C700230054092A
:100890002100C800C70A0319C80A88310020833123
:1008A00021004708200021072300D100210048082B
:1008B0002000223D2300D200E8302000A1000330B8
:1008C000A200230052082000A400230051082000A9
:1008D000A300883111208331200021082100C700A6
:1008E0004708BA0080317720833121002608BB00F9
:1008F0002708BC002808BD00230057088F31362781
:100900008331883100208331200024082300D60061
:10091000200023082300D500200022082300D40053
:10092000200021082300D3009431FE2483310030BD
:100930002300D0000030CF000030CE000030CD00CA
:10094000292D5703031DDE2C53092100C700230066
:1009500054092100C800C70A0319C80A88310020B9
:10096000833121004708200021072300D100210006
:1009700048082000223D2300D200EA3052026030B5
:1009800003195102031C292D963160268331E8306A
:100990002000A1000330A200230052082000A40080
:1009A000230051082000A30088311120833120004A
:1009B00021082100C7004708BA00FB2C22006D085F
:1009C00023005002031DF42C22006C0823004F0268
:1009D000031DF42C22006B0823004E02031DF42C8F
:1009E00022006A0823004D02031C162D9631602652
:1009F00083312100BA01803177208331210026081C
:100A0000BB002708BC002808BD00230057088F3111
:100A1000362783319431FE24833100302300D00007
:100A20000030CF000030CE000030CD0088310020F3
:100A30008331200024082300D6002000230823004F
:100A4000D500200022082300D40020002108230024
:100A5000D30057082100C70047082300CC001030FE
:100A6000CD072730CE3D0030CF3D0030D03D630074
:100A7000CB2B2000141024009D1F772E9D13F9010D
:100A80007708023E860001308700403FF300413F77
:100A9000F400730886007408870001308100F701B4
:100AA00008002100CB1808004A08F3007308F7007B
:100AB0004A088600013087000108F3007308E2004D
:100AC0004A088600013087000130413FF8000430B9
:100AD000F3007308CA074A08663A031D732D623093
:100AE000F3007308CA004B104A0849060319CB14D7
:100AF00024001E140230F3007308F90008002400DB
:100B00009E140230F3007308F900080024001E1F31
:100B1000922D0130F30073082100CD070430953188
:100B2000CF2508007B08F4007A08F300F436F30CB4
:100B30007308240099007A1CA22D0B30F30073086F
:100B4000F90008000330F3007308F90008002400DE
:100B50001E1FB32D0130F30073082100CD070430B0
:100B60009531CF2508009E147B08F4007A08F30025
:100B70007408F300F40106307305F50000307405C5
:100B8000F600F0307504FA0000307604FB007A14A9
:100B90002100E001E00A0230F3007308F9000800C8
:100BA000210060030319EC2D7808860001308700CE
:100BB000403FFA00413FFB007808033E86000130C9
:100BC0008700403FD800413FD900780886000130B7
:100BD00087000130423FE1007A08240099007A1C26
:100BE000F62D0530F3007308F90008000330F30018
:100BF0007308F900080024001E1F092E0130F300BD
:100C000073082100CD0724001E1305309531CF2530
:100C1000080001302100E102610A031D222E053087
:100C2000F3007308F8070130E202031D1B2E0030A9
:100C30009531CF25080024009E140230F30073087C
:100C4000F9000800210058088600590887000108AB
:100C50002400990001302100D8070030D93D080058
:100C600024001E1F3E2E0130F30073082100CD0723
:100C700004309531CF2524001E1308009E1508303E
:100C8000F3007308F90008000830F3007308F90056
:100C900024009E1508002100580886005908870086
:100CA00024001908810001302100D8070030D93D07
:100CB0000130E1020319632E24009E120630F30076
:100CC0007308F900672E24009E1694315E242400D8
:100CD0001E16080000309531CF2508000130F300C2
:100CE00073082100CD0706309531CF25080079081B
:100CF00084000C30040203186E2E90310435003E3F
:100D00008200080020004908CF004A08D0004B08A4
:100D1000D1000310500D510DD2005208D5004C08DF
:100D2000CF004D08D0004E08D1000310500D510DDA
:100D3000D2005208D40055080319AA2E54085502AF
:100D40000318B12E5503FF3A5407CF0019304F0254
:100D5000031CB12E4C08C9004D08CA004E08CB0038
:100D60000800540803190800550854020318C02E3F
:100D70005403FF3A5507CF0019304F0203180800FB
:100D80000630CF004F08D300CB1BD317CE1B531711
:100D9000CA17FF30C905FF30CA050030CB05CD1793
:100DA000FF30CC05FF30CD050030CE05540855028C
:100DB0000318FC2E0130CC35CD0DCE0D890BDB2E6A
:100DC0000130D402540855060319F72E0130D3021E
:100DD000530807390319F72EDA2E0130CB36CA0C27
:100DE000C90C890BEE2E0130CF004F08D5075508EE
:100DF00054060319212FED2E550854020318212FF4
:100E00000130C935CA0DCB0D890B012F0130D50238
:100E10005408550603191D2F0130D3025308073912
:100E200003191D2F002F0130CE36CD0CCC0C890BB1
:100E3000142F0130CF004F08D40755085406031D66
:100E4000132FD31F332FFF30C906FF30CA06FF30E0
:100E5000CB060130C907003003180130CA07003043
:100E600003180130CB07531F452FFF30CC06FF304E
:100E7000CD06FF30CE060130CC070030031801301C
:100E8000CD07003003180130CE07D3014908CC0745
:100E90004A08CD3D4B08CE3DCE1F602FFF30CC061B
:100EA000FF30CD06FF30CE060130CC0700300318EE
:100EB0000130CD07003003180130CE07D301D30A2B
:100EC0004C08A1004D08A2004E08A3005508CF0011
:100ED0004F08A4005308D0005008A5008A31FB2217
:100EE00020002108C9002208CA002308CB000800FE
:100EF0002000AB01A41F892FA109A209A309A409FD
:100F0000A10A0319A20A0319A30A0319A40AAB012F
:100F1000AB0AA81F9A2FA509A609A709A809A50A1F
:100F20000319A60A0319A70A0319A80A0130A90080
:100F30002908AB060030AF000030AE000030AD0035
:100F40000030AC0024082304220421040319E32FF9
:100F5000AA01AA0AA41BB82F0130A135A20DA30D26
:100F6000A40D890BAD2F0130A9002908AA07AA2FCB
:100F70000130AC35AD0DAE0DAF0D890BB92F240886
:100F80002802031DCD2F23082702031DCD2F220881
:100F90002602031DCD2F21082502031CD82F21086E
:100FA000A5022208A63B2308A73B2408A83B2C1433
:100FB0000130A436A30CA20CA10C890BD92F01304F
:100FC000AA02031DB82F2B080319F12FAC09AD0994
:100FD000AE09AF09AC0A0319AD0A0319AE0A031929
:100FE000AF0A2F08A4002E08A3002D08A2002C0889
:100FF000A1000800640080010131890BFB2F00343F
:10100000210051082000A400210050082000A30066
:1010100021004F082000A20021004E082000A1005E
:1010200008002000A701A801210822040319412873
:10103000A601A60AA21B26280130A135A20D890B04
:101040001D280130A5002508A6071A280130A7355C
:10105000A80D890B272822082402031D3128210806
:101060002302031C38282108A3022208A43B2714CA
:101070000130A236A10C890B39280130A602031DCC
:1010800026282808A2002708A10008002000B50093
:10109000B8013008B1003108B6002F08860087017A
:1010A0000108B1003108B7000230B1003108A800D2
:1010B0003508B200B3013208A9003308AA0038305D
:1010C000B4003408AB00363097314F278831C83030
:1010D0002000A1000030A200953116258831023091
:1010E00020003806031D7A2889314A218831003AC8
:1010F00003196F2820003808031D802801300800DC
:10110000003008002000B0018E30AD002D08AF0087
:10111000AC1F9728A909AA09AB09AC09A90A0319A8
:10112000AA0A0319AB0A0319AC0AB001B00AFF30CE
:101130002C050319A7280130AC36AB0CAA0CA90C5E
:10114000890B9C280130AD002D08AF07972829088E
:10115000A1002A08A2002B08A3002F08AD002D082B
:10116000A4003008AE002E08A5008A31FB22200022
:101170002108A9002208AA002308AB000800933127
:101180008823883193319E238831003A0319C2287D
:101190001F3094313E24883193316A238831933152
:1011A000B2238831003A0319CF2893318323883141
:1011B0009331F523883120002208C8002108C70098
:1011C0004808AA004708A9009431A62488312000C5
:1011D0002908B1002A08B2002B08B3001230B4006D
:1011E0008330B5004430B6008D31D9252000310858
:1011F000C4003208C5003308C6004408C1004508D1
:10120000C2004608C30008002000CA004C30BC00E1
:101210000030BD004308C7004708BE000130BF00D2
:101220000030C0004A0894316F248931003A031914
:10123000482901302000C700450A1F29C735890BFE
:101240001E294708FF3EC8004503FF3A4407013EF8
:10125000890A2B29C835890B2A294808C900490859
:10126000CB004B08C7004708CC054503FF3A4407AD
:10127000013E890A3D290310CC0CFF3E031D3B298A
:101280004C08C7004608860087014708810008000F
:101290000030080021004E082000A10021004F0866
:1012A0002000A200210050082000A30021005108C6
:1012B0002000A400220020092000A500220021090E
:1012C0002000A600220022092000A70022002309F6
:1012D0002000A800A50A0319A60A0319A70A0319E2
:1012E000A80A2508A1072608A23D2708A33D28082B
:1012F000A43D22003C082000A90022003D08200057
:10130000AA00AB01AC0124082C02031D912923087B
:101310002B02031D912922082A02031D912921086D
:101320002902031895290130080000300800003018
:101330002000AD000030AC000030AB000030AA004F
:1013400024082304220421040319E129AE01AE0A72
:10135000A41BB6290130A135A20DA30DA40D890B44
:10136000AB290130A9002908AE07A8290130AA3508
:10137000AB0DAC0DAD0D890BB72924082802031D58
:10138000CB2923082702031DCB2922082602031D8F
:10139000CB2921082502031CD6292108A5022208F1
:1013A000A63B2308A73B2408A83B2A140130A436F7
:1013B000A30CA20CA10C890BD7290130AE02031D8E
:1013C000B6292D08A4002C08A3002B08A2002A0887
:1013D000A10008002000A40021004B182C2A023094
:1013E0002000A3002208860087012308810021082D
:1013F000A3002100490A860001308700200023084D
:1014000081002408A30021004908860001308700DC
:1014100020002308810021004908023E8600013097
:10142000870020002208C03F0030C13F0430A300E5
:1014300023082100C9074908663A031D252A62309E
:101440002000A30023082100C900CB104A08490648
:10145000031D322A4B14322A2000220886008701FD
:101460008101810A200022088600870102300106DE
:10147000031D080014147908031908003A2A2000F3
:10148000BA00BB01A801A80A3A08B600B70136089D
:10149000A9003708AA003B30B8003808AB00333049
:1014A00097314F278A31C8302000A1000030A200B8
:1014B000953116258A31023020003B06031D662A2D
:1014C00089314A218A31003A03195B2A20003B08FE
:1014D00003196C2A003008003208AA003108A9005C
:1014E0003408B6003608AB003A08B700B801370830
:1014F000AC003808AD003B30B9003908AE00973178
:1015000027278A31C8302000A1000030A200953181
:1015100016258A31023020003B06031D952A8931A9
:101520004A218A31003A03198A2A20003B08031D08
:101530009B2A013008000030080000302000B40071
:101540000030B3000030B2000A30B1009531EC2514
:101550008A3120002108B1002208B200B301B40191
:101560000030AD00A030AE00FF30AF00FF30B00063
:101570003108AD073208AE3D3308AF3D3408B03D09
:101580003008B4002F08B3002E08B2002D08B100B7
:101590003408A4003308A3003208A2003108A100D7
:1015A0000030A8000030A7000330A600E830A500F6
:1015B0009731D0278A3120002108AD002208AE00E3
:1015C0002308AF002408B0000C30B036AF0CAE0CCE
:1015D000AD0C890BE52A2D082100CE0720002E082E
:1015E0002100CF3D20002F082100D03D20003008F1
:1015F0002100D13D0800200024080319042B2308F2
:1016000022042104031D152B0030A1000030A2008C
:101610000030A30008000130A6002608A40701300E
:10162000A336A20CA10C890B102BFE302305031945
:101630002E2B0B2B0130A6002608A4070130A10792
:10164000003003180130A207003003180130A3074F
:101650000130A336A20CA10C890B292BFF302305E6
:1016600003193B2B1A2B0130A4020130A135A20D26
:10167000A30D890B362BA21B412B02302402031829
:10168000332B2418492BFF30A1057F30A205FF30F2
:10169000A3050310A40C2408A600A701A80110307C
:1016A000A635A70DA80D890B502B2608A1042708E5
:1016B000A2042808A304250803190800A31708009A
:1016C00020000C1D842B21005A08031D7D2B88311E
:1016D00000208B31200024082200A70020002308CE
:1016E0002200A600200022082200A50020002108D8
:1016F0002200A4002100DA01DA0A883100208B31AF
:101700002100DC01DC0ACE2B21005A03031D9D2B96
:10171000883100208B31200024082200A7002000FF
:1017200023082200A600200022082200A500200095
:1017300021082200A4002100DA012200240920004F
:10174000A500220025092000A6002200260920006D
:10175000A700220027092000A800A50A0319A60A4D
:101760000319A70A0319A80A883100208B31200029
:101770002108A5072208A63D2308A73D2408A83D67
:101780002808031DCC2B2708031DCC2B2030250255
:101790004E30263B031CCE2B2100DC0121005C08CF
:1017A000080040302000BC003C08BF003F30BC00B7
:1017B0003C08AF00F430BD003D08B0007630883101
:1017C00046208B31003A031DE92B00309331B923B9
:1017D0000800E0302000BC003C08BF00A430B1008D
:1017E0000130B2008830BC003C08B3001830B400AF
:1017F0000030B50076308A313F228B31003A031D2C
:10180000052C00309331B92308002300250820005F
:10181000BC00BD013C08BD00BC0123002408200021
:101820003C072100D60020003D0803183D0A210096
:10183000D700230027082000BC00BD013C08BD00E4
:10184000BC012300260820003C072200D60020000F
:101850003D0803183D0A2200D70023002908200074
:10186000BC00BD013C08BD00BC01230028082000CD
:101870003C072200D40020003D0803183D0A220046
:10188000D50001309331B92308003B30963126262C
:101890008C31003A0319B72C04302000B300330810
:1018A000AF003730943193248C312000371C612CE9
:1018B0003808B3003308A70021005E089431D12412
:1018C0008C312000B71C6E2C21005D082000B30075
:1018D0003308A70039089431D1248C312000371DFA
:1018E000B12C3A08B300B401B501B60136082200A4
:1018F000ED00200035082200EC0020003408220012
:10190000EB00200033082200EA0000302000A40091
:101910000030A3000330A200E830A10022006D08CF
:101920002000A80022006C082000A70022006B08FD
:101930002000A60022006A082000A5009731D027C9
:101940008C31200024082200ED0020002308220012
:10195000EC00200022082200EB00200021082200D9
:10196000EA002000B71DB72C93316D238C313B303A
:10197000963126268C31003A03190800452C023096
:101980002000AF000430AE00BA30890BC52CAE0B7E
:10199000C52CAF0BC52C000093317B238C31263036
:1019A0002000AE002E08A30006309431BB248C31F9
:1019B00005302000AE002E08A30011309431BB2466
:1019C0008C3102302000AE002E08A3000530943187
:1019D000BB248C3121302000A9009830AA000530AA
:1019E000AE002E08AB000A30963109268C3121302A
:1019F0002000A9009830AA000530AE002E08AB00E8
:101A00001030963109268C312000A301A30A023040
:101A10009431BB248C31703096317F268C3120007C
:101A2000A301A30A01309431BB248C31F130200092
:101A3000AE002E08A30004309431BB248C310E304C
:101A40002000AE002E08A30000309431BB248C315E
:101A500006302000AE002E08A3001D309431BB24B8
:101A60008C312000A301A30A1C309431BB24220036
:101A70000E11080020006608EA006708EB006808FD
:101A8000EC0003106B0D6C0DED006D082100A5003E
:101A90002508031D552D00302000E9000030E80026
:101AA0000030E7000030E600080020006608EA0089
:101AB0006708EB006808EC001730EC36EB0CEA0C1A
:101AC000890B5D2D6A08ED006D082100A000200043
:101AD000E717FF30E605FF30E7050030E805660848
:101AE0002100A100200067082100A2002000680852
:101AF0002100A300A4018E30A502A51F9F2D25085B
:101B0000803A8F3E03188E2D00302000E90000300F
:101B1000E8000030E7000030E60008000130210056
:101B2000A436A30CA20CA10C890B8F2D0130200030
:101B3000EA006A082100A5070319BB2D8E2D183075
:101B40002502031CB72D00302000E9000030E8001A
:101B50000030E7000030E600080001302100A13528
:101B6000A20DA30DA40D890BAE2D0130A5022100FD
:101B70002508031DAD2D20080319C92DA109A209AF
:101B8000A309A409A10A0319A20A0319A30A0319A4
:101B9000A40A24082000E900210023082000E8000E
:101BA000210022082000E700210021082000E60093
:101BB000080020003408B7003508B8003608B9001E
:101BC0000310380D390DBA003A08BF003F08031D55
:101BD000F02D0030B1000030B2000030B30008003A
:101BE0003108B7003208B8003308B9000310380DC7
:101BF000390DBA003A08C0004008031D062E003017
:101C0000B1000030B2000030B30008000030BC006A
:101C10000030BD000030BE0089304007B7003708F3
:101C2000BF023408B7003508B8003608B9001030D4
:101C3000B936B80CB70C890B182E3708BA003A0819
:101C4000C0003108B7003208B8003308B9001030BE
:101C5000B936B80CB70C890B282E3708BA003A08E9
:101C6000C0068030B7003708C005B517FF30B4058F
:101C7000FF30B5050030B605B217FF30B105FF30B3
:101C8000B2050030B3051830B7003708BB0001308B
:101C9000BC35BD0DBE0D890B482E33083602031D21
:101CA000572E32083502031D572E31083402031C0B
:101CB000602E3108B4023208B53B3308B63B3C1401
:101CC0000130B435B50DB60D890B612E0130BB0264
:101CD000031D472E3C08A1003D08A2003E08A300BA
:101CE0003F08B7003708A4004008B8003808A5002E
:101CF0008A31FB2220002108B1002208B20023080B
:101D0000B300080020005608DC005708DD00580822
:101D1000DE0003105D0D5E0DDF005F08E00060086F
:101D2000031D992E0030D6000030D7000030D800B7
:101D300008005908DC005A08DD005B08DE000310CB
:101D40005D0D5E0DDF005F08E5006508031DAF2E29
:101D50000030D6000030D7000030D80008006508F9
:101D60007B3EDC005C08E0075608DC005708DD001D
:101D70005808DE001030DE36DD0CDC0C890BBB2E83
:101D80005C08DF005F08E5005908DC005A08DD0048
:101D90005B08DE001030DE36DD0CDC0C890BCB2E50
:101DA0005C08DF005F08E5068030DC005C08E505C4
:101DB000D717DA17FF30D905FF30DA050030DB0519
:101DC0000030E1000030E2000030E3000730DC00CA
:101DD0005C08E400561CF22E5908E1075A08E23D5F
:101DE0005B08E33D0130D836D70CD60C890BF32EB7
:101DF0000130D935DA0DDB0D890BF92E0130E40203
:101E0000031DEA2E0930DC005C08E400561C0E2F8E
:101E10005908E1075A08E23D5B08E33D0130D83636
:101E2000D70CD60C890B0F2F0130E336E20CE10CF6
:101E3000890B152F0130E402031D062F6108A10054
:101E40006208A2006308A3006008DC005C08A4002C
:101E50006508DD005D08A5008A31FB22200021080D
:101E6000D6002208D7002308D80008002100C400AB
:101E700000302000C9004830CA004230CB002100A9
:101E80003B082000CC0021003C082000CD002100B0
:101E90003D082000CE00863182268F31200049087F
:101EA0002100BB0020004A082100BC0020004B0894
:101EB0002100BD0000302000D6002030D700413086
:101EC000D80021003B082000D90021003C08200058
:101ED000DA0021003D082000DB008E3182268F31A0
:101EE000200056082100BB00200057082100BC003C
:101EF000200058082100BD003B082000E60021001A
:101F00003C082000E70021003D082000E8008D315A
:101F10003A258F31200067082100C600200066089E
:101F20002100C500C40EF030C405943181248F31E6
:101F30002000EE006E082100C30043082000EE00E0
:101F40006E082100C40444082000EE006E08210041
:101F5000BE003A082000EE006E082100BF004608CF
:101F60002000EE006E082100C00045082000EE00B1
:101F70006E082100C1008831BF208F312000410848
:101F8000CC004208CD004308CE000030C9008030AC
:101F9000CA00BF30CB00863182268F31200049082D
:101FA000D9004A08DA004B08DB000030D600C83000
:101FB000D7004230D8008E3182268F31200056085B
:101FC000E6005708E7005808E8008D313A258F31C0
:101FD000200067082100C600200066082100C50017
:101FE00045082000EE006E082100C200BE3094318A
:101FF0002F248F3120008E19FA2F8C3145240800B0
:102000008531512D85317F2D8531D02D8531FB2DA9
:1020100086316A2E8631302E8631442E86316A2EE4
:1020200086314B2E86316E2E8531862D8531A72D3A
:1026CA000800080021006308080021009D14080082
:1026DA002100DB01080001340134053401302200F5
:1026EA00970008001A3021009700080022000E11F6
:1026FA008E140800C03427340934003421001D1018
:10270A0022009713080021001D14220097170800C1
:10271A000030FC006030FD0008002700131D08008F
:10272A009431142408002000A200220894310824BD
:10273A0008002200170E890C890C01390800723032
:10274A0021009900980122009601080040302400D7
:10275A0094002030950092010800031021009D1C6E
:10276A0003140030093D08002000A2002208A1003D
:10277A0021082100E3000800013021009D0090306B
:10278A009E009B019C010800443020009B009A0196
:10279A00911046309C000800200011107D08970017
:1027AA007C08960094312124080020004308420442
:1027BA004104031908008030C306080020002208DB
:1027CA002200E900200021082200E8000800200079
:1027DA0022082200E700200021082200E600080063
:1027EA0021001C082000A20021001B082000A100D3
:1027FA00080010302100CE072730CF3D0030D03DF1
:10280A000030D13D08002000A100240095132000CB
:10281A00210824009100141C102C11080800220021
:10282A006808690403191E2C69088A0068080A00E6
:10283A0094312700131108009331FE2394312200AA
:10284A00660867040319080067088A0066080A0010
:10285A00943108002000B200703096317F269431FE
:10286A0005302000B1003108AE0032089531B42598
:10287A0008002000A2002208A100A10DA10D21003C
:10288A001D08200021068339210621009D001D1400
:10289A0008002000A30022008E1020002308933194
:1028AA009823943122008E140630890B5A2C003258
:1028BA0008000530F0007008F80701302100E20234
:1028CA00031D6C2C0430F0007008F9000800F901AF
:1028DA00F90A08002000C2003D08B2003C08B10015
:1028EA003E08C1004108B3004008B5003F08B400E3
:1028FA0042088A313F2208002000A2012100640810
:10290A002000A1002108A2040310A20D21006308DF
:10291A002000A1002108A204220808002000B20019
:10292A0022000E1120003208B0003008AA002F0839
:10293A00B1003108AB0061309631432622000E15F2
:10294A00080020002908A1002A08A200A3018E304D
:10295A00AC002C08A400A5018A31FB222000210822
:10296A00A9002208AA002308AB0008002000A4003E
:10297A0022008E10200024082038933198239431A5
:10298A002000230893319823943122008E140630B4
:10299A00890BCD2C003208002000A9002908A800C4
:1029AA0028082100DE0020002708A80028082100A6
:1029BA00DD0020002708A8002808A400290895316E
:1029CA002F2508002000990160309700960117080A
:1029DA00FD001608FC00111021001114023020001D
:1029EA00A1000030A2009331EC23BD3020009800F2
:1029FA00080030302000AF002F08AA00AB01AB0A54
:102A0A000030963143269431FD302000AF002F0864
:102A1A00B0053008AF002F08A30000309431BB2462
:102A2A000800200022082200BD0020002108220000
:102A3A00BC00210051082200A300210050082200F6
:102A4A00A20021004F082200A10021004E08220006
:102A5A00A00008002000A6002608A5002508A1005D
:102A6A00013097310427953120002408A500250854
:102A7A00A10002309731042795312000A101A10A53
:102A8A0000309731042708002000A40022008E108D
:102A9A0020002408933198239531003093319823EC
:102AAA0095312000A3002308A50022008E140630C9
:102ABA00890B5D2D003220002508080062302000B5
:102ACA00A10021082100CA0062302000A1002108CB
:102ADA002100C900CB144B10CD0124009C012830E1
:102AEA009D009F0103309A00200014102100141445
:102AFA0008009731792795319331A4239531933181
:102B0A00772395319331AB239531953163259531EF
:102B1A009331732395319331C12395319331C9236D
:102B2A0095319431E72408002000A80125082802DD
:102B3A00031808002408A7002308A6002808260767
:102B4A00840027080318270A850000089331982370
:102B5A00953101302000A6002608A8079B2D2000E9
:102B6A00B000E13094314E24953120003008A9009C
:102B7A000030AA002E08AF002F08AB00A030963113
:102B8A000926953122000E150A30890BCA2D22001A
:102B9A000E110800F20024001E157708023E860076
:102BAA0001308700160001040319EA2D7708023E56
:102BBA00860001308700403FF000413FF100700875
:102BCA0086007108870072088100F9010800200058
:102BDA001608A3002308AB001708A3002308AA00BD
:102BEA002B08A300A4012A08A500A6012508A6000F
:102BFA00A50123082504A80024082604A9002908F9
:102C0A00A2002808A10008002000AD0022008E10B2
:102C1A0020002D08203893319823963120002A0865
:102C2A00A4002908A3002B08AC002C08A5009531A4
:102C3A009925963122008E140630890B222E0032F5
:102C4A0008002000A7000730953149259631200059
:102C5A00A6002608A8000E30A6002608A8050E30F1
:102C6A002806031D3A2E003008002836A600270839
:102C7A008600870126088100013008002000AE0086
:102C8A0022008E1020002E089331982396312000BE
:102C9A002A08AC002C08A3002B08AD002D08A400BC
:102CAA002A0896319F26963122008E140630890B07
:102CBA005C2E0032080030302000AF002F08AA0036
:102CCA00AB01AB0A00309631432696312000B0148E
:102CDA003008AF002F08A30000309431BB2496318E
:102CEA0006302000AF003030890B792EAF0B792ED9
:102CFA00000008002000A6000630890B822E003250
:102D0A0022008E100630890B882E003220002608F9
:102D1A00A5002508A30007309431BB24963106305C
:102D2A00890B952E003222008E140630890B9B2EB9
:102D3A00003208002000A800A9012408290203186B
:102D4A00080029082807A500250886008701010828
:102D5A009331982396312000A60029082307A7005B
:102D6A00270886008701260881000130A50025086A
:102D7A00A907A22E2000AE01AA1FCA2EA909AA09D4
:102D8A00A90A0319AA0AAE01AE0A2908A1002A084B
:102D9A00A200A3018E30AC002C08A4002E08AD00BE
:102DAA002D08A5008A31FB2220002108A90022084B
:102DBA00AA002308AB0008002000A7002408A600E8
:102DCA002308A500A535A60D27088600013087002F
:102DDA002508C03F2608C13F2208A5002708023E51
:102DEA00860001308700250881002708033E8600F7
:102DFA00013087002108C03F0030C13F0800200091
:102E0A00A200A30122082300910020002108230028
:102E1A00930095131513151500308B1B01302000F4
:102E2A00A3008B13553023009600AA309600951400
:102E3A0095181D2F15112000230C031C8B13031842
:102E4A008B17080021004B18482F20002A08A200DF
:102E5A002908A1002B08AF002F08A3002D08A50000
:102E6A002C08A40058309731A427973158302000F5
:102E7A00AF002F08A1002E08B0003008A2000130D0
:102E8A008931EA21080020002E0886008701810185
:102E9A00810A08002000AE0021004B18722F200082
:102EAA002E08AC002C08A1002808AD002D08A200AD
:102EBA002A08A4002908A3005D309631E12697313B
:102ECA005D302000AC002C08A1002B08AD002D08B5
:102EDA00A20001308931EA21080020002B0886006F
:102EEA0087018101810A080022008C018D018E016F
:102EFA003F3021008C00B0308D0039308E00013017
:102F0A0023008E008D0103308C00103024008D00C8
:102F1A003F308C00D1308E00210095132A302200D8
:102F2A009E009D012700131112151115663020000D
:102F3A00A1001330A2009331E3238B15080020006F
:102F4A00A8002508A7002408A600A635A70D28086A
:102F5A008600013087002608C03F2708C13F28089D
:102F6A00860001308700013081044131003081043C
:102F7A002308A6002808023E86000130870026089A
:102F8A0081002808033E8600013087002108C03FDF
:102F9A002208C13F080000302000AC000030AB001E
:102FAA000030AA000030A900211CE32F2508A90738
:102FBA002608AA3D2708AB3D2808AC3D0130A535B7
:102FCA00A60DA70DA80D890BE42F0130A436A30C7A
:102FDA00A20CA10C890BEB2F240823042204210440
:102FEA00031DD92F2C08A4002B08A3002A08A2002D
:102FFA002908A10008003C34043442349F346A345E
:10300A0042349034013442344D34BB344034EC34CD
:10301A0047343E348E341F34BB343C340434423497
:10302A005A348B3442340434443442349C344F345A
:10303A004134003480343F34323430343034303424
:02304A0031341F
:020000040001F9
:04000E00F4FFFFFEFE
:00000001FF
